{
  "contractName": "GizzyBase",
  "abi": [
    {
      "anonymous": false,
      "inputs": [
        {
          "indexed": true,
          "internalType": "address",
          "name": "owner",
          "type": "address"
        },
        {
          "indexed": true,
          "internalType": "address",
          "name": "approved",
          "type": "address"
        },
        {
          "indexed": true,
          "internalType": "uint256",
          "name": "tokenId",
          "type": "uint256"
        }
      ],
      "name": "Approval",
      "type": "event"
    },
    {
      "anonymous": false,
      "inputs": [
        {
          "indexed": true,
          "internalType": "address",
          "name": "owner",
          "type": "address"
        },
        {
          "indexed": true,
          "internalType": "address",
          "name": "operator",
          "type": "address"
        },
        {
          "indexed": false,
          "internalType": "bool",
          "name": "approved",
          "type": "bool"
        }
      ],
      "name": "ApprovalForAll",
      "type": "event"
    },
    {
      "anonymous": false,
      "inputs": [
        {
          "indexed": false,
          "internalType": "uint256",
          "name": "kittyId",
          "type": "uint256"
        },
        {
          "indexed": false,
          "internalType": "uint256",
          "name": "matronId",
          "type": "uint256"
        },
        {
          "indexed": false,
          "internalType": "uint256",
          "name": "sireId",
          "type": "uint256"
        },
        {
          "indexed": true,
          "internalType": "address",
          "name": "owner",
          "type": "address"
        },
        {
          "indexed": false,
          "internalType": "string",
          "name": "tokenURI",
          "type": "string"
        }
      ],
      "name": "Birth",
      "type": "event"
    },
    {
      "anonymous": false,
      "inputs": [
        {
          "indexed": true,
          "internalType": "address",
          "name": "from",
          "type": "address"
        },
        {
          "indexed": true,
          "internalType": "address",
          "name": "to",
          "type": "address"
        },
        {
          "indexed": true,
          "internalType": "uint256",
          "name": "tokenId",
          "type": "uint256"
        }
      ],
      "name": "Transfer",
      "type": "event"
    },
    {
      "inputs": [],
      "name": "accountantAddress",
      "outputs": [
        {
          "internalType": "address payable",
          "name": "",
          "type": "address"
        }
      ],
      "stateMutability": "view",
      "type": "function",
      "constant": true
    },
    {
      "inputs": [],
      "name": "adminAddress",
      "outputs": [
        {
          "internalType": "address",
          "name": "",
          "type": "address"
        }
      ],
      "stateMutability": "view",
      "type": "function",
      "constant": true
    },
    {
      "inputs": [
        {
          "internalType": "address",
          "name": "to",
          "type": "address"
        },
        {
          "internalType": "uint256",
          "name": "tokenId",
          "type": "uint256"
        }
      ],
      "name": "approve",
      "outputs": [],
      "stateMutability": "nonpayable",
      "type": "function"
    },
    {
      "inputs": [
        {
          "internalType": "address",
          "name": "owner",
          "type": "address"
        }
      ],
      "name": "balanceOf",
      "outputs": [
        {
          "internalType": "uint256",
          "name": "",
          "type": "uint256"
        }
      ],
      "stateMutability": "view",
      "type": "function",
      "constant": true
    },
    {
      "inputs": [
        {
          "internalType": "uint256",
          "name": "",
          "type": "uint256"
        }
      ],
      "name": "cooldowns",
      "outputs": [
        {
          "internalType": "uint32",
          "name": "",
          "type": "uint32"
        }
      ],
      "stateMutability": "view",
      "type": "function",
      "constant": true
    },
    {
      "inputs": [
        {
          "internalType": "uint256",
          "name": "tokenId",
          "type": "uint256"
        }
      ],
      "name": "getApproved",
      "outputs": [
        {
          "internalType": "address",
          "name": "",
          "type": "address"
        }
      ],
      "stateMutability": "view",
      "type": "function",
      "constant": true
    },
    {
      "inputs": [
        {
          "internalType": "uint256",
          "name": "",
          "type": "uint256"
        }
      ],
      "name": "gizzies",
      "outputs": [
        {
          "internalType": "uint64",
          "name": "birthTime",
          "type": "uint64"
        },
        {
          "internalType": "uint64",
          "name": "cooldownEndTime",
          "type": "uint64"
        },
        {
          "internalType": "uint32",
          "name": "matronId",
          "type": "uint32"
        },
        {
          "internalType": "uint32",
          "name": "sireId",
          "type": "uint32"
        },
        {
          "internalType": "uint32",
          "name": "siringWithId",
          "type": "uint32"
        },
        {
          "internalType": "uint16",
          "name": "generation",
          "type": "uint16"
        },
        {
          "internalType": "uint8",
          "name": "cooldownIndex",
          "type": "uint8"
        },
        {
          "internalType": "bool",
          "name": "breedable",
          "type": "bool"
        }
      ],
      "stateMutability": "view",
      "type": "function",
      "constant": true
    },
    {
      "inputs": [
        {
          "internalType": "address",
          "name": "owner",
          "type": "address"
        },
        {
          "internalType": "address",
          "name": "operator",
          "type": "address"
        }
      ],
      "name": "isApprovedForAll",
      "outputs": [
        {
          "internalType": "bool",
          "name": "",
          "type": "bool"
        }
      ],
      "stateMutability": "view",
      "type": "function",
      "constant": true
    },
    {
      "inputs": [],
      "name": "name",
      "outputs": [
        {
          "internalType": "string",
          "name": "",
          "type": "string"
        }
      ],
      "stateMutability": "view",
      "type": "function",
      "constant": true
    },
    {
      "inputs": [
        {
          "internalType": "uint256",
          "name": "tokenId",
          "type": "uint256"
        }
      ],
      "name": "ownerOf",
      "outputs": [
        {
          "internalType": "address",
          "name": "",
          "type": "address"
        }
      ],
      "stateMutability": "view",
      "type": "function",
      "constant": true
    },
    {
      "inputs": [],
      "name": "paused",
      "outputs": [
        {
          "internalType": "bool",
          "name": "",
          "type": "bool"
        }
      ],
      "stateMutability": "view",
      "type": "function",
      "constant": true
    },
    {
      "inputs": [
        {
          "internalType": "address",
          "name": "from",
          "type": "address"
        },
        {
          "internalType": "address",
          "name": "to",
          "type": "address"
        },
        {
          "internalType": "uint256",
          "name": "tokenId",
          "type": "uint256"
        }
      ],
      "name": "safeTransferFrom",
      "outputs": [],
      "stateMutability": "nonpayable",
      "type": "function"
    },
    {
      "inputs": [
        {
          "internalType": "address",
          "name": "from",
          "type": "address"
        },
        {
          "internalType": "address",
          "name": "to",
          "type": "address"
        },
        {
          "internalType": "uint256",
          "name": "tokenId",
          "type": "uint256"
        },
        {
          "internalType": "bytes",
          "name": "_data",
          "type": "bytes"
        }
      ],
      "name": "safeTransferFrom",
      "outputs": [],
      "stateMutability": "nonpayable",
      "type": "function"
    },
    {
      "inputs": [],
      "name": "serverAddress",
      "outputs": [
        {
          "internalType": "address",
          "name": "",
          "type": "address"
        }
      ],
      "stateMutability": "view",
      "type": "function",
      "constant": true
    },
    {
      "inputs": [
        {
          "internalType": "address",
          "name": "operator",
          "type": "address"
        },
        {
          "internalType": "bool",
          "name": "approved",
          "type": "bool"
        }
      ],
      "name": "setApprovalForAll",
      "outputs": [],
      "stateMutability": "nonpayable",
      "type": "function"
    },
    {
      "inputs": [
        {
          "internalType": "bytes4",
          "name": "interfaceId",
          "type": "bytes4"
        }
      ],
      "name": "supportsInterface",
      "outputs": [
        {
          "internalType": "bool",
          "name": "",
          "type": "bool"
        }
      ],
      "stateMutability": "view",
      "type": "function",
      "constant": true
    },
    {
      "inputs": [],
      "name": "symbol",
      "outputs": [
        {
          "internalType": "string",
          "name": "",
          "type": "string"
        }
      ],
      "stateMutability": "view",
      "type": "function",
      "constant": true
    },
    {
      "inputs": [
        {
          "internalType": "uint256",
          "name": "tokenId",
          "type": "uint256"
        }
      ],
      "name": "tokenURI",
      "outputs": [
        {
          "internalType": "string",
          "name": "",
          "type": "string"
        }
      ],
      "stateMutability": "view",
      "type": "function",
      "constant": true
    },
    {
      "inputs": [
        {
          "internalType": "address",
          "name": "from",
          "type": "address"
        },
        {
          "internalType": "address",
          "name": "to",
          "type": "address"
        },
        {
          "internalType": "uint256",
          "name": "tokenId",
          "type": "uint256"
        }
      ],
      "name": "transferFrom",
      "outputs": [],
      "stateMutability": "nonpayable",
      "type": "function"
    },
    {
      "inputs": [],
      "name": "initialize",
      "outputs": [],
      "stateMutability": "nonpayable",
      "type": "function"
    },
    {
      "inputs": [
        {
          "internalType": "address",
          "name": "_newAdmin",
          "type": "address"
        }
      ],
      "name": "setAdmin",
      "outputs": [],
      "stateMutability": "nonpayable",
      "type": "function"
    },
    {
      "inputs": [
        {
          "internalType": "address",
          "name": "_newServer",
          "type": "address"
        }
      ],
      "name": "setServer",
      "outputs": [],
      "stateMutability": "nonpayable",
      "type": "function"
    },
    {
      "inputs": [
        {
          "internalType": "address payable",
          "name": "_newAccountant",
          "type": "address"
        }
      ],
      "name": "setAccountant",
      "outputs": [],
      "stateMutability": "nonpayable",
      "type": "function"
    },
    {
      "inputs": [],
      "name": "withdrawBalance",
      "outputs": [],
      "stateMutability": "nonpayable",
      "type": "function"
    },
    {
      "inputs": [],
      "name": "pause",
      "outputs": [],
      "stateMutability": "nonpayable",
      "type": "function"
    },
    {
      "inputs": [],
      "name": "unpause",
      "outputs": [],
      "stateMutability": "nonpayable",
      "type": "function"
    },
    {
      "inputs": [
        {
          "internalType": "address",
          "name": "_owner",
          "type": "address"
        },
        {
          "internalType": "bool",
          "name": "_breedable",
          "type": "bool"
        },
        {
          "internalType": "string",
          "name": "_tokenURI",
          "type": "string"
        }
      ],
      "name": "createPromoGizzy",
      "outputs": [],
      "stateMutability": "nonpayable",
      "type": "function"
    },
    {
      "inputs": [
        {
          "internalType": "uint256",
          "name": "_id",
          "type": "uint256"
        }
      ],
      "name": "getGizzy",
      "outputs": [
        {
          "internalType": "bool",
          "name": "isGestating",
          "type": "bool"
        },
        {
          "internalType": "bool",
          "name": "isReady",
          "type": "bool"
        },
        {
          "internalType": "uint256",
          "name": "cooldownIndex",
          "type": "uint256"
        },
        {
          "internalType": "uint256",
          "name": "nextActionAt",
          "type": "uint256"
        },
        {
          "internalType": "uint256",
          "name": "siringWithId",
          "type": "uint256"
        },
        {
          "internalType": "uint256",
          "name": "birthTime",
          "type": "uint256"
        },
        {
          "internalType": "uint256",
          "name": "matronId",
          "type": "uint256"
        },
        {
          "internalType": "uint256",
          "name": "sireId",
          "type": "uint256"
        },
        {
          "internalType": "uint256",
          "name": "generation",
          "type": "uint256"
        },
        {
          "internalType": "string",
          "name": "ipfsHash",
          "type": "string"
        }
      ],
      "stateMutability": "view",
      "type": "function",
      "constant": true
    }
  ],
  "bytecode": "0x6080604052600060cb60146101000a81548160ff021916908315150217905550604051806101c00160405280603c63ffffffff1663ffffffff168152602001607863ffffffff1663ffffffff16815260200161012c63ffffffff1663ffffffff16815260200161025863ffffffff1663ffffffff16815260200161070863ffffffff1663ffffffff168152602001610e1063ffffffff1663ffffffff168152602001611c2063ffffffff1663ffffffff16815260200161384063ffffffff1663ffffffff16815260200161708063ffffffff1663ffffffff16815260200161e10063ffffffff1663ffffffff1681526020016201518063ffffffff1663ffffffff1681526020016202a30063ffffffff1663ffffffff1681526020016205460063ffffffff1663ffffffff16815260200162093a8063ffffffff1663ffffffff1681525060cc90600e620001559291906200016a565b503480156200016357600080fd5b5062000233565b82600e600701600890048101928215620002015791602002820160005b83821115620001cd57835183826101000a81548163ffffffff021916908363ffffffff160217905550926020019260040160208160030104928301926001030262000187565b8015620001ff5782816101000a81549063ffffffff0219169055600401602081600301049283019260010302620001cd565b505b50905062000210919062000214565b5090565b5b808211156200022f57600081600090555060010162000215565b5090565b6140e480620002436000396000f3fe608060405234801561001057600080fd5b50600436106101c45760003560e01c80637b80638a116100f9578063b88d4fde11610097578063db420fe311610071578063db420fe3146104d9578063e985e9c5146104f7578063f19a0b5414610527578063fc6f946814610543576101c4565b8063b88d4fde14610454578063c87b56dd14610470578063cd0f611b146104a0576101c4565b806395d89b41116100d357806395d89b41146103ce5780639d6fac6f146103ec578063a22cb4651461041c578063ab508da414610438576101c4565b80637b80638a146103835780638129fc1c146103ba5780638456cb59146103c4576101c4565b806342842e0e116101665780635fd8c710116101405780635fd8c710146102fd5780636352211e14610307578063704b6c021461033757806370a0823114610353576101c4565b806342842e0e146102a757806348ea7127146102c35780635c975abb146102df576101c4565b8063095ea7b3116101a2578063095ea7b3146102475780631f1dea9e1461026357806323b872dd146102815780633f4ba83a1461029d576101c4565b806301ffc9a7146101c957806306fdde03146101f9578063081812fc14610217575b600080fd5b6101e360048036038101906101de9190612ea9565b610561565b6040516101f09190613338565b60405180910390f35b610201610643565b60405161020e91906133f6565b60405180910390f35b610231600480360381019061022c9190612efb565b6106d5565b60405161023e91906132b6565b60405180910390f35b610261600480360381019061025c9190612e6d565b61075a565b005b61026b610872565b60405161027891906132d1565b60405180910390f35b61029b60048036038101906102969190612d00565b610898565b005b6102a56108f8565b005b6102c160048036038101906102bc9190612d00565b610988565b005b6102dd60048036038101906102d89190612c9b565b6109a8565b005b6102e7610a80565b6040516102f49190613338565b60405180910390f35b610305610a93565b005b610321600480360381019061031c9190612efb565b610b58565b60405161032e91906132b6565b60405180910390f35b610351600480360381019061034c9190612c72565b610c0a565b005b61036d60048036038101906103689190612c72565b610ce2565b60405161037a9190613638565b60405180910390f35b61039d60048036038101906103989190612efb565b610d9a565b6040516103b19897969594939291906136ba565b60405180910390f35b6103c2610e6e565b005b6103cc610f6c565b005b6103d6610ffd565b6040516103e391906133f6565b60405180910390f35b61040660048036038101906104019190612efb565b61108f565b604051610413919061369f565b60405180910390f35b61043660048036038101906104319190612dca565b6110bf565b005b610452600480360381019061044d9190612e06565b611240565b005b61046e60048036038101906104699190612d4f565b611322565b005b61048a60048036038101906104859190612efb565b611384565b60405161049791906133f6565b60405180910390f35b6104ba60048036038101906104b59190612efb565b6114d6565b6040516104d09a99989796959493929190613353565b60405180910390f35b6104e1611661565b6040516104ee91906132b6565b60405180910390f35b610511600480360381019061050c9190612cc4565b611687565b60405161051e9190613338565b60405180910390f35b610541600480360381019061053c9190612c72565b61171b565b005b61054b6117f3565b60405161055891906132b6565b60405180910390f35b60007f80ac58cd000000000000000000000000000000000000000000000000000000007bffffffffffffffffffffffffffffffffffffffffffffffffffffffff1916827bffffffffffffffffffffffffffffffffffffffffffffffffffffffff1916148061062c57507f5b5e139f000000000000000000000000000000000000000000000000000000007bffffffffffffffffffffffffffffffffffffffffffffffffffffffff1916827bffffffffffffffffffffffffffffffffffffffffffffffffffffffff1916145b8061063c575061063b82611819565b5b9050919050565b606060658054610652906139c4565b80601f016020809104026020016040519081016040528092919081815260200182805461067e906139c4565b80156106cb5780601f106106a0576101008083540402835291602001916106cb565b820191906000526020600020905b8154815290600101906020018083116106ae57829003601f168201915b5050505050905090565b60006106e082611883565b61071f576040517f08c379a000000000000000000000000000000000000000000000000000000000815260040161071690613598565b60405180910390fd5b6069600083815260200190815260200160002060009054906101000a900473ffffffffffffffffffffffffffffffffffffffff169050919050565b600061076582610b58565b90508073ffffffffffffffffffffffffffffffffffffffff168373ffffffffffffffffffffffffffffffffffffffff1614156107d6576040517f08c379a00000000000000000000000000000000000000000000000000000000081526004016107cd906135f8565b60405180910390fd5b8073ffffffffffffffffffffffffffffffffffffffff166107f56118ef565b73ffffffffffffffffffffffffffffffffffffffff16148061082457506108238161081e6118ef565b611687565b5b610863576040517f08c379a000000000000000000000000000000000000000000000000000000000815260040161085a906134b8565b60405180910390fd5b61086d83836118f7565b505050565b60cb60009054906101000a900473ffffffffffffffffffffffffffffffffffffffff1681565b6108a96108a36118ef565b826119b0565b6108e8576040517f08c379a00000000000000000000000000000000000000000000000000000000081526004016108df90613618565b60405180910390fd5b6108f3838383611a8e565b505050565b60c960009054906101000a900473ffffffffffffffffffffffffffffffffffffffff1673ffffffffffffffffffffffffffffffffffffffff163373ffffffffffffffffffffffffffffffffffffffff161461095257600080fd5b60cb60149054906101000a900460ff1661096b57600080fd5b600060cb60146101000a81548160ff021916908315150217905550565b6109a383838360405180602001604052806000815250611322565b505050565b60c960009054906101000a900473ffffffffffffffffffffffffffffffffffffffff1673ffffffffffffffffffffffffffffffffffffffff163373ffffffffffffffffffffffffffffffffffffffff1614610a0257600080fd5b600073ffffffffffffffffffffffffffffffffffffffff168173ffffffffffffffffffffffffffffffffffffffff161415610a3c57600080fd5b8060ca60006101000a81548173ffffffffffffffffffffffffffffffffffffffff021916908373ffffffffffffffffffffffffffffffffffffffff16021790555050565b60cb60149054906101000a900460ff1681565b60cb60009054906101000a900473ffffffffffffffffffffffffffffffffffffffff1673ffffffffffffffffffffffffffffffffffffffff163373ffffffffffffffffffffffffffffffffffffffff1614610aed57600080fd5b60cb60009054906101000a900473ffffffffffffffffffffffffffffffffffffffff1673ffffffffffffffffffffffffffffffffffffffff166108fc479081150290604051600060405180830381858888f19350505050158015610b55573d6000803e3d6000fd5b50565b6000806067600084815260200190815260200160002060009054906101000a900473ffffffffffffffffffffffffffffffffffffffff169050600073ffffffffffffffffffffffffffffffffffffffff168173ffffffffffffffffffffffffffffffffffffffff161415610c01576040517f08c379a0000000000000000000000000000000000000000000000000000000008152600401610bf8906134f8565b60405180910390fd5b80915050919050565b60c960009054906101000a900473ffffffffffffffffffffffffffffffffffffffff1673ffffffffffffffffffffffffffffffffffffffff163373ffffffffffffffffffffffffffffffffffffffff1614610c6457600080fd5b600073ffffffffffffffffffffffffffffffffffffffff168173ffffffffffffffffffffffffffffffffffffffff161415610c9e57600080fd5b8060c960006101000a81548173ffffffffffffffffffffffffffffffffffffffff021916908373ffffffffffffffffffffffffffffffffffffffff16021790555050565b60008073ffffffffffffffffffffffffffffffffffffffff168273ffffffffffffffffffffffffffffffffffffffff161415610d53576040517f08c379a0000000000000000000000000000000000000000000000000000000008152600401610d4a906134d8565b60405180910390fd5b606860008373ffffffffffffffffffffffffffffffffffffffff1673ffffffffffffffffffffffffffffffffffffffff168152602001908152602001600020549050919050565b60ce8181548110610daa57600080fd5b906000526020600020016000915090508060000160009054906101000a900467ffffffffffffffff16908060000160089054906101000a900467ffffffffffffffff16908060000160109054906101000a900463ffffffff16908060000160149054906101000a900463ffffffff16908060000160189054906101000a900463ffffffff169080600001601c9054906101000a900461ffff169080600001601e9054906101000a900460ff169080600001601f9054906101000a900460ff16905088565b610ee26040518060400160405280600581526020017f47697a7a790000000000000000000000000000000000000000000000000000008152506040518060400160405280600381526020017f475a590000000000000000000000000000000000000000000000000000000000815250611cea565b3360c960006101000a81548173ffffffffffffffffffffffffffffffffffffffff021916908373ffffffffffffffffffffffffffffffffffffffff160217905550610f6960008060003360006040518060400160405280600481526020017f6e756c6c00000000000000000000000000000000000000000000000000000000815250611ddf565b50565b60c960009054906101000a900473ffffffffffffffffffffffffffffffffffffffff1673ffffffffffffffffffffffffffffffffffffffff163373ffffffffffffffffffffffffffffffffffffffff1614610fc657600080fd5b60cb60149054906101000a900460ff1615610fe057600080fd5b600160cb60146101000a81548160ff021916908315150217905550565b60606066805461100c906139c4565b80601f0160208091040260200160405190810160405280929190818152602001828054611038906139c4565b80156110855780601f1061105a57610100808354040283529160200191611085565b820191906000526020600020905b81548152906001019060200180831161106857829003601f168201915b5050505050905090565b60cc81600e811061109f57600080fd5b60089182820401919006600402915054906101000a900463ffffffff1681565b6110c76118ef565b73ffffffffffffffffffffffffffffffffffffffff168273ffffffffffffffffffffffffffffffffffffffff161415611135576040517f08c379a000000000000000000000000000000000000000000000000000000000815260040161112c90613478565b60405180910390fd5b80606a60006111426118ef565b73ffffffffffffffffffffffffffffffffffffffff1673ffffffffffffffffffffffffffffffffffffffff16815260200190815260200160002060008473ffffffffffffffffffffffffffffffffffffffff1673ffffffffffffffffffffffffffffffffffffffff16815260200190815260200160002060006101000a81548160ff0219169083151502179055508173ffffffffffffffffffffffffffffffffffffffff166111ef6118ef565b73ffffffffffffffffffffffffffffffffffffffff167f17307eab39ab6107e8899845ad3d59bd9653f200f220920489ca2b5937696c31836040516112349190613338565b60405180910390a35050565b60c960009054906101000a900473ffffffffffffffffffffffffffffffffffffffff1673ffffffffffffffffffffffffffffffffffffffff163373ffffffffffffffffffffffffffffffffffffffff1614806112e9575060ca60009054906101000a900473ffffffffffffffffffffffffffffffffffffffff1673ffffffffffffffffffffffffffffffffffffffff163373ffffffffffffffffffffffffffffffffffffffff16145b6112f257600080fd5b60cb60149054906101000a900460ff161561130c57600080fd5b61131c6000806000868686611ddf565b50505050565b61133361132d6118ef565b836119b0565b611372576040517f08c379a000000000000000000000000000000000000000000000000000000000815260040161136990613618565b60405180910390fd5b61137e84848484612095565b50505050565b606061138f82611883565b6113ce576040517f08c379a00000000000000000000000000000000000000000000000000000000081526004016113c590613578565b60405180910390fd5b60006097600084815260200190815260200160002080546113ee906139c4565b80601f016020809104026020016040519081016040528092919081815260200182805461141a906139c4565b80156114675780601f1061143c57610100808354040283529160200191611467565b820191906000526020600020905b81548152906001019060200180831161144a57829003601f168201915b5050505050905060006114786120f1565b905060008151141561148e5781925050506114d1565b6000825111156114c35780826040516020016114ab929190613292565b604051602081830303815290604052925050506114d1565b6114cc84612108565b925050505b919050565b60008060008060008060008060006060600060ce8c81548110611522577f4e487b7100000000000000000000000000000000000000000000000000000000600052603260045260246000fd5b90600052602060002001905060008160000160189054906101000a900463ffffffff1663ffffffff1614159a50428160000160089054906101000a900467ffffffffffffffff1667ffffffffffffffff161115995080600001601e9054906101000a900460ff1660ff1698508060000160089054906101000a900467ffffffffffffffff1667ffffffffffffffff1697508060000160189054906101000a900463ffffffff1663ffffffff1696508060000160009054906101000a900467ffffffffffffffff1667ffffffffffffffff1695508060000160109054906101000a900463ffffffff1663ffffffff1694508060000160149054906101000a900463ffffffff1663ffffffff16935080600001601c9054906101000a900461ffff1661ffff1692506116518c611384565b9150509193959799509193959799565b60ca60009054906101000a900473ffffffffffffffffffffffffffffffffffffffff1681565b6000606a60008473ffffffffffffffffffffffffffffffffffffffff1673ffffffffffffffffffffffffffffffffffffffff16815260200190815260200160002060008373ffffffffffffffffffffffffffffffffffffffff1673ffffffffffffffffffffffffffffffffffffffff16815260200190815260200160002060009054906101000a900460ff16905092915050565b60c960009054906101000a900473ffffffffffffffffffffffffffffffffffffffff1673ffffffffffffffffffffffffffffffffffffffff163373ffffffffffffffffffffffffffffffffffffffff161461177557600080fd5b600073ffffffffffffffffffffffffffffffffffffffff168173ffffffffffffffffffffffffffffffffffffffff1614156117af57600080fd5b8060ca60006101000a81548173ffffffffffffffffffffffffffffffffffffffff021916908373ffffffffffffffffffffffffffffffffffffffff16021790555050565b60c960009054906101000a900473ffffffffffffffffffffffffffffffffffffffff1681565b60007f01ffc9a7000000000000000000000000000000000000000000000000000000007bffffffffffffffffffffffffffffffffffffffffffffffffffffffff1916827bffffffffffffffffffffffffffffffffffffffffffffffffffffffff1916149050919050565b60008073ffffffffffffffffffffffffffffffffffffffff166067600084815260200190815260200160002060009054906101000a900473ffffffffffffffffffffffffffffffffffffffff1673ffffffffffffffffffffffffffffffffffffffff1614159050919050565b600033905090565b816069600083815260200190815260200160002060006101000a81548173ffffffffffffffffffffffffffffffffffffffff021916908373ffffffffffffffffffffffffffffffffffffffff160217905550808273ffffffffffffffffffffffffffffffffffffffff1661196a83610b58565b73ffffffffffffffffffffffffffffffffffffffff167f8c5be1e5ebec7d5bd14f71427d1e84f3dd0314c0f7b2291e5b200ac8c7c3b92560405160405180910390a45050565b60006119bb82611883565b6119fa576040517f08c379a00000000000000000000000000000000000000000000000000000000081526004016119f190613498565b60405180910390fd5b6000611a0583610b58565b90508073ffffffffffffffffffffffffffffffffffffffff168473ffffffffffffffffffffffffffffffffffffffff161480611a7457508373ffffffffffffffffffffffffffffffffffffffff16611a5c846106d5565b73ffffffffffffffffffffffffffffffffffffffff16145b80611a855750611a848185611687565b5b91505092915050565b8273ffffffffffffffffffffffffffffffffffffffff16611aae82610b58565b73ffffffffffffffffffffffffffffffffffffffff1614611b04576040517f08c379a0000000000000000000000000000000000000000000000000000000008152600401611afb906135b8565b60405180910390fd5b600073ffffffffffffffffffffffffffffffffffffffff168273ffffffffffffffffffffffffffffffffffffffff161415611b74576040517f08c379a0000000000000000000000000000000000000000000000000000000008152600401611b6b90613458565b60405180910390fd5b611b7f8383836121af565b611b8a6000826118f7565b6001606860008573ffffffffffffffffffffffffffffffffffffffff1673ffffffffffffffffffffffffffffffffffffffff1681526020019081526020016000206000828254611bda9190613889565b925050819055506001606860008473ffffffffffffffffffffffffffffffffffffffff1673ffffffffffffffffffffffffffffffffffffffff1681526020019081526020016000206000828254611c319190613802565b92505081905550816067600083815260200190815260200160002060006101000a81548173ffffffffffffffffffffffffffffffffffffffff021916908373ffffffffffffffffffffffffffffffffffffffff160217905550808273ffffffffffffffffffffffffffffffffffffffff168473ffffffffffffffffffffffffffffffffffffffff167fddf252ad1be2c89b69c2b068fc378daa952ba7f163c4a11628f55a4df523b3ef60405160405180910390a4505050565b600060019054906101000a900460ff1680611d10575060008054906101000a900460ff16155b611d4f576040517f08c379a0000000000000000000000000000000000000000000000000000000008152600401611d4690613538565b60405180910390fd5b60008060019054906101000a900460ff161590508015611d9f576001600060016101000a81548160ff02191690831515021790555060016000806101000a81548160ff0219169083151502179055505b611da76121b4565b611daf61228d565b611db98383612366565b8015611dda5760008060016101000a81548160ff0219169083151502179055505b505050565b600063ffffffff871115611df257600080fd5b63ffffffff861115611e0357600080fd5b61ffff851115611e1257600080fd5b60006040518061010001604052804267ffffffffffffffff168152602001600067ffffffffffffffff1681526020018963ffffffff1681526020018863ffffffff168152602001600063ffffffff1681526020018761ffff168152602001600060ff168152602001851515815250905060ce819080600181540180825580915050600190039060005260206000200160009091909190915060008201518160000160006101000a81548167ffffffffffffffff021916908367ffffffffffffffff16021790555060208201518160000160086101000a81548167ffffffffffffffff021916908367ffffffffffffffff16021790555060408201518160000160106101000a81548163ffffffff021916908363ffffffff16021790555060608201518160000160146101000a81548163ffffffff021916908363ffffffff16021790555060808201518160000160186101000a81548163ffffffff021916908363ffffffff16021790555060a082015181600001601c6101000a81548161ffff021916908361ffff16021790555060c082015181600001601e6101000a81548160ff021916908360ff16021790555060e082015181600001601f6101000a81548160ff02191690831515021790555050506000600160ce80549050611ff79190613889565b905063ffffffff81111561200a57600080fd5b8573ffffffffffffffffffffffffffffffffffffffff167f9402a6ae3ac82210044ca95af4f5a153cd33bf2073e1d5244b2579437529a6d982846040015163ffffffff16856060015163ffffffff168860405161206a9493929190613653565b60405180910390a261207c868261246f565b612086818561248d565b80925050509695505050505050565b6120a0848484611a8e565b6120ac84848484612501565b6120eb576040517f08c379a00000000000000000000000000000000000000000000000000000000081526004016120e290613418565b60405180910390fd5b50505050565b606060405180602001604052806000815250905090565b606061211382611883565b612152576040517f08c379a0000000000000000000000000000000000000000000000000000000008152600401612149906135d8565b60405180910390fd5b600061215c6120f1565b9050600081511161217c57604051806020016040528060008152506121a7565b8061218684612698565b604051602001612197929190613292565b6040516020818303038152906040525b915050919050565b505050565b600060019054906101000a900460ff16806121da575060008054906101000a900460ff16155b612219576040517f08c379a000000000000000000000000000000000000000000000000000000000815260040161221090613538565b60405180910390fd5b60008060019054906101000a900460ff161590508015612269576001600060016101000a81548160ff02191690831515021790555060016000806101000a81548160ff0219169083151502179055505b801561228a5760008060016101000a81548160ff0219169083151502179055505b50565b600060019054906101000a900460ff16806122b3575060008054906101000a900460ff16155b6122f2576040517f08c379a00000000000000000000000000000000000000000000000000000000081526004016122e990613538565b60405180910390fd5b60008060019054906101000a900460ff161590508015612342576001600060016101000a81548160ff02191690831515021790555060016000806101000a81548160ff0219169083151502179055505b80156123635760008060016101000a81548160ff0219169083151502179055505b50565b600060019054906101000a900460ff168061238c575060008054906101000a900460ff16155b6123cb576040517f08c379a00000000000000000000000000000000000000000000000000000000081526004016123c290613538565b60405180910390fd5b60008060019054906101000a900460ff16159050801561241b576001600060016101000a81548160ff02191690831515021790555060016000806101000a81548160ff0219169083151502179055505b8260659080519060200190612431929190612a81565b508160669080519060200190612448929190612a81565b50801561246a5760008060016101000a81548160ff0219169083151502179055505b505050565b612489828260405180602001604052806000815250612845565b5050565b61249682611883565b6124d5576040517f08c379a00000000000000000000000000000000000000000000000000000000081526004016124cc90613518565b60405180910390fd5b806097600084815260200190815260200160002090805190602001906124fc929190612a81565b505050565b60006125228473ffffffffffffffffffffffffffffffffffffffff166128a0565b1561268b578373ffffffffffffffffffffffffffffffffffffffff1663150b7a0261254b6118ef565b8786866040518563ffffffff1660e01b815260040161256d94939291906132ec565b602060405180830381600087803b15801561258757600080fd5b505af19250505080156125b857506040513d601f19601f820116820180604052508101906125b59190612ed2565b60015b61263b573d80600081146125e8576040519150601f19603f3d011682016040523d82523d6000602084013e6125ed565b606091505b50600081511415612633576040517f08c379a000000000000000000000000000000000000000000000000000000000815260040161262a90613418565b60405180910390fd5b805181602001fd5b63150b7a0260e01b7bffffffffffffffffffffffffffffffffffffffffffffffffffffffff1916817bffffffffffffffffffffffffffffffffffffffffffffffffffffffff191614915050612690565b600190505b949350505050565b606060008214156126e0576040518060400160405280600181526020017f30000000000000000000000000000000000000000000000000000000000000008152509050612840565b600082905060005b600082146127125780806126fb90613a27565b915050600a8261270b9190613858565b91506126e8565b60008167ffffffffffffffff811115612754577f4e487b7100000000000000000000000000000000000000000000000000000000600052604160045260246000fd5b6040519080825280601f01601f1916602001820160405280156127865781602001600182028036833780820191505090505b5090505b600085146128395760018261279f9190613889565b9150600a856127ae9190613a70565b60306127ba9190613802565b60f81b8183815181106127f6577f4e487b7100000000000000000000000000000000000000000000000000000000600052603260045260246000fd5b60200101907effffffffffffffffffffffffffffffffffffffffffffffffffffffffffffff1916908160001a905350600a856128329190613858565b945061278a565b8093505050505b919050565b61284f83836128b3565b61285c6000848484612501565b61289b576040517f08c379a000000000000000000000000000000000000000000000000000000000815260040161289290613418565b60405180910390fd5b505050565b600080823b905060008111915050919050565b600073ffffffffffffffffffffffffffffffffffffffff168273ffffffffffffffffffffffffffffffffffffffff161415612923576040517f08c379a000000000000000000000000000000000000000000000000000000000815260040161291a90613558565b60405180910390fd5b61292c81611883565b1561296c576040517f08c379a000000000000000000000000000000000000000000000000000000000815260040161296390613438565b60405180910390fd5b612978600083836121af565b6001606860008473ffffffffffffffffffffffffffffffffffffffff1673ffffffffffffffffffffffffffffffffffffffff16815260200190815260200160002060008282546129c89190613802565b92505081905550816067600083815260200190815260200160002060006101000a81548173ffffffffffffffffffffffffffffffffffffffff021916908373ffffffffffffffffffffffffffffffffffffffff160217905550808273ffffffffffffffffffffffffffffffffffffffff16600073ffffffffffffffffffffffffffffffffffffffff167fddf252ad1be2c89b69c2b068fc378daa952ba7f163c4a11628f55a4df523b3ef60405160405180910390a45050565b828054612a8d906139c4565b90600052602060002090601f016020900481019282612aaf5760008555612af6565b82601f10612ac857805160ff1916838001178555612af6565b82800160010185558215612af6579182015b82811115612af5578251825591602001919060010190612ada565b5b509050612b039190612b07565b5090565b5b80821115612b20576000816000905550600101612b08565b5090565b6000612b37612b328461375d565b613738565b905082815260208101848484011115612b4f57600080fd5b612b5a848285613982565b509392505050565b6000612b75612b708461378e565b613738565b905082815260208101848484011115612b8d57600080fd5b612b98848285613982565b509392505050565b600081359050612baf8161403b565b92915050565b600081359050612bc481614052565b92915050565b600081359050612bd981614069565b92915050565b600081359050612bee81614080565b92915050565b600081519050612c0381614080565b92915050565b600082601f830112612c1a57600080fd5b8135612c2a848260208601612b24565b91505092915050565b600082601f830112612c4457600080fd5b8135612c54848260208601612b62565b91505092915050565b600081359050612c6c81614097565b92915050565b600060208284031215612c8457600080fd5b6000612c9284828501612ba0565b91505092915050565b600060208284031215612cad57600080fd5b6000612cbb84828501612bb5565b91505092915050565b60008060408385031215612cd757600080fd5b6000612ce585828601612ba0565b9250506020612cf685828601612ba0565b9150509250929050565b600080600060608486031215612d1557600080fd5b6000612d2386828701612ba0565b9350506020612d3486828701612ba0565b9250506040612d4586828701612c5d565b9150509250925092565b60008060008060808587031215612d6557600080fd5b6000612d7387828801612ba0565b9450506020612d8487828801612ba0565b9350506040612d9587828801612c5d565b925050606085013567ffffffffffffffff811115612db257600080fd5b612dbe87828801612c09565b91505092959194509250565b60008060408385031215612ddd57600080fd5b6000612deb85828601612ba0565b9250506020612dfc85828601612bca565b9150509250929050565b600080600060608486031215612e1b57600080fd5b6000612e2986828701612ba0565b9350506020612e3a86828701612bca565b925050604084013567ffffffffffffffff811115612e5757600080fd5b612e6386828701612c33565b9150509250925092565b60008060408385031215612e8057600080fd5b6000612e8e85828601612ba0565b9250506020612e9f85828601612c5d565b9150509250929050565b600060208284031215612ebb57600080fd5b6000612ec984828501612bdf565b91505092915050565b600060208284031215612ee457600080fd5b6000612ef284828501612bf4565b91505092915050565b600060208284031215612f0d57600080fd5b6000612f1b84828501612c5d565b91505092915050565b612f2d816138cf565b82525050565b612f3c816138bd565b82525050565b612f4b816138e1565b82525050565b6000612f5c826137bf565b612f6681856137d5565b9350612f76818560208601613991565b612f7f81613b5d565b840191505092915050565b6000612f95826137ca565b612f9f81856137e6565b9350612faf818560208601613991565b612fb881613b5d565b840191505092915050565b6000612fce826137ca565b612fd881856137f7565b9350612fe8818560208601613991565b80840191505092915050565b60006130016032836137e6565b915061300c82613b6e565b604082019050919050565b6000613024601c836137e6565b915061302f82613bbd565b602082019050919050565b60006130476024836137e6565b915061305282613be6565b604082019050919050565b600061306a6019836137e6565b915061307582613c35565b602082019050919050565b600061308d602c836137e6565b915061309882613c5e565b604082019050919050565b60006130b06038836137e6565b91506130bb82613cad565b604082019050919050565b60006130d3602a836137e6565b91506130de82613cfc565b604082019050919050565b60006130f66029836137e6565b915061310182613d4b565b604082019050919050565b6000613119602e836137e6565b915061312482613d9a565b604082019050919050565b600061313c602e836137e6565b915061314782613de9565b604082019050919050565b600061315f6020836137e6565b915061316a82613e38565b602082019050919050565b60006131826031836137e6565b915061318d82613e61565b604082019050919050565b60006131a5602c836137e6565b91506131b082613eb0565b604082019050919050565b60006131c86029836137e6565b91506131d382613eff565b604082019050919050565b60006131eb602f836137e6565b91506131f682613f4e565b604082019050919050565b600061320e6021836137e6565b915061321982613f9d565b604082019050919050565b60006132316031836137e6565b915061323c82613fec565b604082019050919050565b61325081613919565b82525050565b61325f81613947565b82525050565b61326e81613951565b82525050565b61327d81613961565b82525050565b61328c81613975565b82525050565b600061329e8285612fc3565b91506132aa8284612fc3565b91508190509392505050565b60006020820190506132cb6000830184612f33565b92915050565b60006020820190506132e66000830184612f24565b92915050565b60006080820190506133016000830187612f33565b61330e6020830186612f33565b61331b6040830185613256565b818103606083015261332d8184612f51565b905095945050505050565b600060208201905061334d6000830184612f42565b92915050565b600061014082019050613369600083018d612f42565b613376602083018c612f42565b613383604083018b613256565b613390606083018a613256565b61339d6080830189613256565b6133aa60a0830188613256565b6133b760c0830187613256565b6133c460e0830186613256565b6133d2610100830185613256565b8181036101208301526133e58184612f8a565b90509b9a5050505050505050505050565b600060208201905081810360008301526134108184612f8a565b905092915050565b6000602082019050818103600083015261343181612ff4565b9050919050565b6000602082019050818103600083015261345181613017565b9050919050565b600060208201905081810360008301526134718161303a565b9050919050565b600060208201905081810360008301526134918161305d565b9050919050565b600060208201905081810360008301526134b181613080565b9050919050565b600060208201905081810360008301526134d1816130a3565b9050919050565b600060208201905081810360008301526134f1816130c6565b9050919050565b60006020820190508181036000830152613511816130e9565b9050919050565b600060208201905081810360008301526135318161310c565b9050919050565b600060208201905081810360008301526135518161312f565b9050919050565b6000602082019050818103600083015261357181613152565b9050919050565b6000602082019050818103600083015261359181613175565b9050919050565b600060208201905081810360008301526135b181613198565b9050919050565b600060208201905081810360008301526135d1816131bb565b9050919050565b600060208201905081810360008301526135f1816131de565b9050919050565b6000602082019050818103600083015261361181613201565b9050919050565b6000602082019050818103600083015261363181613224565b9050919050565b600060208201905061364d6000830184613256565b92915050565b60006080820190506136686000830187613256565b6136756020830186613256565b6136826040830185613256565b81810360608301526136948184612f8a565b905095945050505050565b60006020820190506136b46000830184613265565b92915050565b6000610100820190506136d0600083018b613274565b6136dd602083018a613274565b6136ea6040830189613265565b6136f76060830188613265565b6137046080830187613265565b61371160a0830186613247565b61371e60c0830185613283565b61372b60e0830184612f42565b9998505050505050505050565b6000613742613753565b905061374e82826139f6565b919050565b6000604051905090565b600067ffffffffffffffff82111561377857613777613b2e565b5b61378182613b5d565b9050602081019050919050565b600067ffffffffffffffff8211156137a9576137a8613b2e565b5b6137b282613b5d565b9050602081019050919050565b600081519050919050565b600081519050919050565b600082825260208201905092915050565b600082825260208201905092915050565b600081905092915050565b600061380d82613947565b915061381883613947565b9250827fffffffffffffffffffffffffffffffffffffffffffffffffffffffffffffffff0382111561384d5761384c613aa1565b5b828201905092915050565b600061386382613947565b915061386e83613947565b92508261387e5761387d613ad0565b5b828204905092915050565b600061389482613947565b915061389f83613947565b9250828210156138b2576138b1613aa1565b5b828203905092915050565b60006138c882613927565b9050919050565b60006138da82613927565b9050919050565b60008115159050919050565b60007fffffffff0000000000000000000000000000000000000000000000000000000082169050919050565b600061ffff82169050919050565b600073ffffffffffffffffffffffffffffffffffffffff82169050919050565b6000819050919050565b600063ffffffff82169050919050565b600067ffffffffffffffff82169050919050565b600060ff82169050919050565b82818337600083830152505050565b60005b838110156139af578082015181840152602081019050613994565b838111156139be576000848401525b50505050565b600060028204905060018216806139dc57607f821691505b602082108114156139f0576139ef613aff565b5b50919050565b6139ff82613b5d565b810181811067ffffffffffffffff82111715613a1e57613a1d613b2e565b5b80604052505050565b6000613a3282613947565b91507fffffffffffffffffffffffffffffffffffffffffffffffffffffffffffffffff821415613a6557613a64613aa1565b5b600182019050919050565b6000613a7b82613947565b9150613a8683613947565b925082613a9657613a95613ad0565b5b828206905092915050565b7f4e487b7100000000000000000000000000000000000000000000000000000000600052601160045260246000fd5b7f4e487b7100000000000000000000000000000000000000000000000000000000600052601260045260246000fd5b7f4e487b7100000000000000000000000000000000000000000000000000000000600052602260045260246000fd5b7f4e487b7100000000000000000000000000000000000000000000000000000000600052604160045260246000fd5b6000601f19601f8301169050919050565b7f4552433732313a207472616e7366657220746f206e6f6e20455243373231526560008201527f63656976657220696d706c656d656e7465720000000000000000000000000000602082015250565b7f4552433732313a20746f6b656e20616c7265616479206d696e74656400000000600082015250565b7f4552433732313a207472616e7366657220746f20746865207a65726f2061646460008201527f7265737300000000000000000000000000000000000000000000000000000000602082015250565b7f4552433732313a20617070726f766520746f2063616c6c657200000000000000600082015250565b7f4552433732313a206f70657261746f7220717565727920666f72206e6f6e657860008201527f697374656e7420746f6b656e0000000000000000000000000000000000000000602082015250565b7f4552433732313a20617070726f76652063616c6c6572206973206e6f74206f7760008201527f6e6572206e6f7220617070726f76656420666f7220616c6c0000000000000000602082015250565b7f4552433732313a2062616c616e636520717565727920666f7220746865207a6560008201527f726f206164647265737300000000000000000000000000000000000000000000602082015250565b7f4552433732313a206f776e657220717565727920666f72206e6f6e657869737460008201527f656e7420746f6b656e0000000000000000000000000000000000000000000000602082015250565b7f45524337323155524953746f726167653a2055524920736574206f66206e6f6e60008201527f6578697374656e7420746f6b656e000000000000000000000000000000000000602082015250565b7f496e697469616c697a61626c653a20636f6e747261637420697320616c72656160008201527f647920696e697469616c697a6564000000000000000000000000000000000000602082015250565b7f4552433732313a206d696e7420746f20746865207a65726f2061646472657373600082015250565b7f45524337323155524953746f726167653a2055524920717565727920666f722060008201527f6e6f6e6578697374656e7420746f6b656e000000000000000000000000000000602082015250565b7f4552433732313a20617070726f76656420717565727920666f72206e6f6e657860008201527f697374656e7420746f6b656e0000000000000000000000000000000000000000602082015250565b7f4552433732313a207472616e73666572206f6620746f6b656e2074686174206960008201527f73206e6f74206f776e0000000000000000000000000000000000000000000000602082015250565b7f4552433732314d657461646174613a2055524920717565727920666f72206e6f60008201527f6e6578697374656e7420746f6b656e0000000000000000000000000000000000602082015250565b7f4552433732313a20617070726f76616c20746f2063757272656e74206f776e6560008201527f7200000000000000000000000000000000000000000000000000000000000000602082015250565b7f4552433732313a207472616e736665722063616c6c6572206973206e6f74206f60008201527f776e6572206e6f7220617070726f766564000000000000000000000000000000602082015250565b614044816138bd565b811461404f57600080fd5b50565b61405b816138cf565b811461406657600080fd5b50565b614072816138e1565b811461407d57600080fd5b50565b614089816138ed565b811461409457600080fd5b50565b6140a081613947565b81146140ab57600080fd5b5056fea26469706673582212204d88b55d8d89cce4119db3b623534ea1a62808fff450b99624e60aa4f7a586cb64736f6c63430008030033",
  "immutableReferences": {},
  "source": "// SPDX-License-Identifier: MIT\npragma solidity >=0.4.22 <0.9.0;\n \nimport \"@openzeppelin/contracts-upgradeable/token/ERC721/extensions/ERC721URIStorageUpgradeable.sol\";\n \ncontract GizzyBase is ERC721URIStorageUpgradeable{\n \n    function initialize() public {\n        __ERC721_init(\"Gizzy\", \"GZY\");\n        adminAddress = msg.sender;\n        _createGizzy(0,0,0,msg.sender,false,\"null\");\n    }\n \n    address public adminAddress;\n    address public serverAddress;\n    address payable public accountantAddress;\n \n    bool public paused = false;\n \n    modifier onlyAdmin() {\n        require(msg.sender == adminAddress);\n        _;\n    }\n \n    modifier onlyAccountant() {\n        require(msg.sender == accountantAddress);\n        _;\n    }\n\n    modifier onlyServer() {\n        require(msg.sender == serverAddress);\n        _;\n    }\n\n    modifier onlyAuthority() {\n        require(\n            msg.sender == adminAddress ||\n            msg.sender == serverAddress\n        );\n        _;\n    }\n\n    function setAdmin(address _newAdmin) public onlyAdmin {\n        require(_newAdmin != address(0));\n \n        adminAddress = _newAdmin;\n    }\n \n \n    function setServer(address _newServer) public onlyAdmin {\n        require(_newServer != address(0));\n \n        serverAddress = _newServer;\n    }\n \n    function setAccountant(address payable _newAccountant) public onlyAdmin {\n        require(_newAccountant != address(0));\n \n        serverAddress = _newAccountant;\n    }\n\n    function withdrawBalance() external onlyAccountant {\n        // keep track of actual balance and send that balance\n        accountantAddress.transfer(address(this).balance);\n    }\n \n    modifier whenNotPaused() {\n        require(!paused);\n        _;\n    }\n \n    modifier whenPaused {\n        require(paused);\n        _;\n    }\n \n    function pause() public onlyAdmin whenNotPaused {\n        paused = true;\n    }\n \n    function unpause() public onlyAdmin whenPaused {\n        // can't unpause if contract was upgraded\n        paused = false;\n    }\n \n    event Birth(uint256 kittyId, uint256 matronId, uint256 sireId, address indexed owner, string tokenURI);\n \n    struct Gizzy {\n        uint64 birthTime;\n        uint64 cooldownEndTime;\n        uint32 matronId;\n        uint32 sireId;\n        uint32 siringWithId;\n        uint16 generation;\n        uint8 cooldownIndex;\n        bool breedable;\n    }\n \n    uint32[14] public cooldowns = [\n        uint32(1 minutes),\n        uint32(2 minutes),\n        uint32(5 minutes),\n        uint32(10 minutes),\n        uint32(30 minutes),\n        uint32(1 hours),\n        uint32(2 hours),\n        uint32(4 hours),\n        uint32(8 hours),\n        uint32(16 hours),\n        uint32(1 days),\n        uint32(2 days),\n        uint32(4 days),\n        uint32(7 days)\n    ];\n \n    // an array to keep track of all the gizzy structs\n    Gizzy[] public gizzies;\n \n    function _createGizzy(\n        uint256 _matronId,\n        uint256 _sireId,\n        uint256 _generation,\n        address _owner,\n        bool _breedable,\n        string memory _tokenURI\n    )\n        internal\n        returns (uint)\n \n    {\n        require(_matronId <= 4294967295);\n        require(_sireId <= 4294967295);\n        require(_generation <= 65535);\n    \n        Gizzy memory _gizzy = Gizzy({\n            birthTime: uint64(block.timestamp),\n            cooldownEndTime: 0,\n            matronId: uint32(_matronId),\n            sireId: uint32(_sireId),\n            siringWithId: 0,\n            cooldownIndex: 0,\n            generation: uint16(_generation),\n            breedable: bool (_breedable)\n        });\n \n        gizzies.push(_gizzy);\n        uint256 newGizzyId = gizzies.length - 1;\n \n        require(newGizzyId <= 4294967295);\n \n        emit Birth(\n        newGizzyId,\n        uint256(_gizzy.matronId),\n        uint256(_gizzy.sireId),\n        _owner,\n        string(_tokenURI)\n        );\n \n        _safeMint(_owner, newGizzyId);\n        _setTokenURI(newGizzyId, _tokenURI);\n        \n        return newGizzyId;\n \n    }\n \n    // called by admin\n    function createPromoGizzy(address _owner, bool _breedable, string memory _tokenURI) public onlyAuthority whenNotPaused {\n \n        // set owner to whoever gizzy is being gifted\n        // when promo gizzy is auctioned, gift to their own account and then start auction\n\n        _createGizzy(0, 0, 0, _owner, _breedable, _tokenURI);\n    }\n \n    //\n    // Core Contract that is deployed\n    //\n    function getGizzy(uint256 _id)\n    public\n    view\n    returns (\n      bool isGestating,\n      bool isReady,\n      uint256 cooldownIndex,\n      uint256 nextActionAt,\n      uint256 siringWithId,\n      uint256 birthTime,\n      uint256 matronId,\n      uint256 sireId,\n      uint256 generation,\n      string memory ipfsHash\n    ) {\n      Gizzy storage giz = gizzies[_id];\n \n      isGestating = (giz.siringWithId != 0);\n      isReady = (giz.cooldownEndTime <= block.timestamp);\n      cooldownIndex = uint256(giz.cooldownIndex);\n      nextActionAt = uint256(giz.cooldownEndTime);\n      siringWithId = uint256(giz.siringWithId);\n      birthTime = uint256(giz.birthTime);\n      matronId = uint256(giz.matronId);\n      sireId = uint256(giz.sireId);\n      generation = uint256(giz.generation);\n      ipfsHash = tokenURI(_id);\n    }\n \n}\n",
  "sourcePath": "/home/imtiaz/Desktop/baeinnovations/gizzy-smartcontracts/contracts/GizzyBase.sol",
  "compiler": {
    "name": "solc",
    "version": "0.8.3+commit.8d00100c.Emscripten.clang"
  },
  "schemaVersion": "3.4.0",
  "updatedAt": "2021-06-15T10:04:54.011Z",
  "networkType": "ethereum",
  "devdoc": {
    "kind": "dev",
    "methods": {
      "approve(address,uint256)": {
        "details": "See {IERC721-approve}."
      },
      "balanceOf(address)": {
        "details": "See {IERC721-balanceOf}."
      },
      "getApproved(uint256)": {
        "details": "See {IERC721-getApproved}."
      },
      "isApprovedForAll(address,address)": {
        "details": "See {IERC721-isApprovedForAll}."
      },
      "name()": {
        "details": "See {IERC721Metadata-name}."
      },
      "ownerOf(uint256)": {
        "details": "See {IERC721-ownerOf}."
      },
      "safeTransferFrom(address,address,uint256)": {
        "details": "See {IERC721-safeTransferFrom}."
      },
      "safeTransferFrom(address,address,uint256,bytes)": {
        "details": "See {IERC721-safeTransferFrom}."
      },
      "setApprovalForAll(address,bool)": {
        "details": "See {IERC721-setApprovalForAll}."
      },
      "supportsInterface(bytes4)": {
        "details": "See {IERC165-supportsInterface}."
      },
      "symbol()": {
        "details": "See {IERC721Metadata-symbol}."
      },
      "tokenURI(uint256)": {
        "details": "See {IERC721Metadata-tokenURI}."
      },
      "transferFrom(address,address,uint256)": {
        "details": "See {IERC721-transferFrom}."
      }
    },
    "version": 1
  },
  "userdoc": {
    "kind": "user",
    "methods": {},
    "version": 1
  }
}