{
  "contractName": "GizzyBase",
  "abi": [
    {
      "anonymous": false,
      "inputs": [
        {
          "indexed": true,
          "internalType": "address",
          "name": "owner",
          "type": "address"
        },
        {
          "indexed": true,
          "internalType": "address",
          "name": "approved",
          "type": "address"
        },
        {
          "indexed": true,
          "internalType": "uint256",
          "name": "tokenId",
          "type": "uint256"
        }
      ],
      "name": "Approval",
      "type": "event"
    },
    {
      "anonymous": false,
      "inputs": [
        {
          "indexed": true,
          "internalType": "address",
          "name": "owner",
          "type": "address"
        },
        {
          "indexed": true,
          "internalType": "address",
          "name": "operator",
          "type": "address"
        },
        {
          "indexed": false,
          "internalType": "bool",
          "name": "approved",
          "type": "bool"
        }
      ],
      "name": "ApprovalForAll",
      "type": "event"
    },
    {
      "anonymous": false,
      "inputs": [
        {
          "indexed": false,
          "internalType": "uint256",
          "name": "gizzyId",
          "type": "uint256"
        },
        {
          "indexed": false,
          "internalType": "uint256",
          "name": "matronId",
          "type": "uint256"
        },
        {
          "indexed": false,
          "internalType": "uint256",
          "name": "sireId",
          "type": "uint256"
        },
        {
          "indexed": true,
          "internalType": "address",
          "name": "owner",
          "type": "address"
        },
        {
          "indexed": false,
          "internalType": "string",
          "name": "tokenURI",
          "type": "string"
        }
      ],
      "name": "Birth",
      "type": "event"
    },
    {
      "anonymous": false,
      "inputs": [
        {
          "indexed": false,
          "internalType": "uint256",
          "name": "gizzyId",
          "type": "uint256"
        },
        {
          "indexed": true,
          "internalType": "address",
          "name": "owner",
          "type": "address"
        },
        {
          "indexed": false,
          "internalType": "string",
          "name": "tokenURI",
          "type": "string"
        }
      ],
      "name": "BoughtEgg",
      "type": "event"
    },
    {
      "anonymous": false,
      "inputs": [
        {
          "indexed": true,
          "internalType": "address",
          "name": "from",
          "type": "address"
        },
        {
          "indexed": true,
          "internalType": "address",
          "name": "to",
          "type": "address"
        },
        {
          "indexed": true,
          "internalType": "uint256",
          "name": "tokenId",
          "type": "uint256"
        }
      ],
      "name": "Transfer",
      "type": "event"
    },
    {
      "inputs": [],
      "name": "accountantAddress",
      "outputs": [
        {
          "internalType": "address payable",
          "name": "",
          "type": "address"
        }
      ],
      "stateMutability": "view",
      "type": "function",
      "constant": true
    },
    {
      "inputs": [],
      "name": "adminAddress",
      "outputs": [
        {
          "internalType": "address",
          "name": "",
          "type": "address"
        }
      ],
      "stateMutability": "view",
      "type": "function",
      "constant": true
    },
    {
      "inputs": [
        {
          "internalType": "address",
          "name": "to",
          "type": "address"
        },
        {
          "internalType": "uint256",
          "name": "tokenId",
          "type": "uint256"
        }
      ],
      "name": "approve",
      "outputs": [],
      "stateMutability": "nonpayable",
      "type": "function"
    },
    {
      "inputs": [
        {
          "internalType": "address",
          "name": "owner",
          "type": "address"
        }
      ],
      "name": "balanceOf",
      "outputs": [
        {
          "internalType": "uint256",
          "name": "",
          "type": "uint256"
        }
      ],
      "stateMutability": "view",
      "type": "function",
      "constant": true
    },
    {
      "inputs": [
        {
          "internalType": "uint256",
          "name": "",
          "type": "uint256"
        }
      ],
      "name": "cooldowns",
      "outputs": [
        {
          "internalType": "uint32",
          "name": "",
          "type": "uint32"
        }
      ],
      "stateMutability": "view",
      "type": "function",
      "constant": true
    },
    {
      "inputs": [
        {
          "internalType": "uint256",
          "name": "tokenId",
          "type": "uint256"
        }
      ],
      "name": "getApproved",
      "outputs": [
        {
          "internalType": "address",
          "name": "",
          "type": "address"
        }
      ],
      "stateMutability": "view",
      "type": "function",
      "constant": true
    },
    {
      "inputs": [
        {
          "internalType": "uint256",
          "name": "",
          "type": "uint256"
        }
      ],
      "name": "gizzies",
      "outputs": [
        {
          "internalType": "uint64",
          "name": "birthTime",
          "type": "uint64"
        },
        {
          "internalType": "uint64",
          "name": "cooldownEndTime",
          "type": "uint64"
        },
        {
          "internalType": "uint32",
          "name": "matronId",
          "type": "uint32"
        },
        {
          "internalType": "uint32",
          "name": "sireId",
          "type": "uint32"
        },
        {
          "internalType": "uint32",
          "name": "siringWithId",
          "type": "uint32"
        },
        {
          "internalType": "uint16",
          "name": "generation",
          "type": "uint16"
        },
        {
          "internalType": "uint8",
          "name": "cooldownIndex",
          "type": "uint8"
        },
        {
          "internalType": "bool",
          "name": "breedable",
          "type": "bool"
        }
      ],
      "stateMutability": "view",
      "type": "function",
      "constant": true
    },
    {
      "inputs": [
        {
          "internalType": "address",
          "name": "owner",
          "type": "address"
        },
        {
          "internalType": "address",
          "name": "operator",
          "type": "address"
        }
      ],
      "name": "isApprovedForAll",
      "outputs": [
        {
          "internalType": "bool",
          "name": "",
          "type": "bool"
        }
      ],
      "stateMutability": "view",
      "type": "function",
      "constant": true
    },
    {
      "inputs": [],
      "name": "name",
      "outputs": [
        {
          "internalType": "string",
          "name": "",
          "type": "string"
        }
      ],
      "stateMutability": "view",
      "type": "function",
      "constant": true
    },
    {
      "inputs": [
        {
          "internalType": "uint256",
          "name": "tokenId",
          "type": "uint256"
        }
      ],
      "name": "ownerOf",
      "outputs": [
        {
          "internalType": "address",
          "name": "",
          "type": "address"
        }
      ],
      "stateMutability": "view",
      "type": "function",
      "constant": true
    },
    {
      "inputs": [],
      "name": "paused",
      "outputs": [
        {
          "internalType": "bool",
          "name": "",
          "type": "bool"
        }
      ],
      "stateMutability": "view",
      "type": "function",
      "constant": true
    },
    {
      "inputs": [
        {
          "internalType": "address",
          "name": "from",
          "type": "address"
        },
        {
          "internalType": "address",
          "name": "to",
          "type": "address"
        },
        {
          "internalType": "uint256",
          "name": "tokenId",
          "type": "uint256"
        }
      ],
      "name": "safeTransferFrom",
      "outputs": [],
      "stateMutability": "nonpayable",
      "type": "function"
    },
    {
      "inputs": [
        {
          "internalType": "address",
          "name": "from",
          "type": "address"
        },
        {
          "internalType": "address",
          "name": "to",
          "type": "address"
        },
        {
          "internalType": "uint256",
          "name": "tokenId",
          "type": "uint256"
        },
        {
          "internalType": "bytes",
          "name": "_data",
          "type": "bytes"
        }
      ],
      "name": "safeTransferFrom",
      "outputs": [],
      "stateMutability": "nonpayable",
      "type": "function"
    },
    {
      "inputs": [],
      "name": "serverAddress",
      "outputs": [
        {
          "internalType": "address",
          "name": "",
          "type": "address"
        }
      ],
      "stateMutability": "view",
      "type": "function",
      "constant": true
    },
    {
      "inputs": [
        {
          "internalType": "address",
          "name": "operator",
          "type": "address"
        },
        {
          "internalType": "bool",
          "name": "approved",
          "type": "bool"
        }
      ],
      "name": "setApprovalForAll",
      "outputs": [],
      "stateMutability": "nonpayable",
      "type": "function"
    },
    {
      "inputs": [
        {
          "internalType": "bytes4",
          "name": "interfaceId",
          "type": "bytes4"
        }
      ],
      "name": "supportsInterface",
      "outputs": [
        {
          "internalType": "bool",
          "name": "",
          "type": "bool"
        }
      ],
      "stateMutability": "view",
      "type": "function",
      "constant": true
    },
    {
      "inputs": [],
      "name": "symbol",
      "outputs": [
        {
          "internalType": "string",
          "name": "",
          "type": "string"
        }
      ],
      "stateMutability": "view",
      "type": "function",
      "constant": true
    },
    {
      "inputs": [
        {
          "internalType": "uint256",
          "name": "tokenId",
          "type": "uint256"
        }
      ],
      "name": "tokenURI",
      "outputs": [
        {
          "internalType": "string",
          "name": "",
          "type": "string"
        }
      ],
      "stateMutability": "view",
      "type": "function",
      "constant": true
    },
    {
      "inputs": [
        {
          "internalType": "address",
          "name": "from",
          "type": "address"
        },
        {
          "internalType": "address",
          "name": "to",
          "type": "address"
        },
        {
          "internalType": "uint256",
          "name": "tokenId",
          "type": "uint256"
        }
      ],
      "name": "transferFrom",
      "outputs": [],
      "stateMutability": "nonpayable",
      "type": "function"
    },
    {
      "inputs": [],
      "name": "initialize",
      "outputs": [],
      "stateMutability": "nonpayable",
      "type": "function"
    },
    {
      "inputs": [
        {
          "internalType": "address",
          "name": "_newAdmin",
          "type": "address"
        }
      ],
      "name": "setAdmin",
      "outputs": [],
      "stateMutability": "nonpayable",
      "type": "function"
    },
    {
      "inputs": [
        {
          "internalType": "address",
          "name": "_newServer",
          "type": "address"
        }
      ],
      "name": "setServer",
      "outputs": [],
      "stateMutability": "nonpayable",
      "type": "function"
    },
    {
      "inputs": [
        {
          "internalType": "address payable",
          "name": "_newAccountant",
          "type": "address"
        }
      ],
      "name": "setAccountant",
      "outputs": [],
      "stateMutability": "nonpayable",
      "type": "function"
    },
    {
      "inputs": [],
      "name": "withdrawBalance",
      "outputs": [],
      "stateMutability": "nonpayable",
      "type": "function"
    },
    {
      "inputs": [],
      "name": "pause",
      "outputs": [],
      "stateMutability": "nonpayable",
      "type": "function"
    },
    {
      "inputs": [],
      "name": "unpause",
      "outputs": [],
      "stateMutability": "nonpayable",
      "type": "function"
    },
    {
      "inputs": [
        {
          "internalType": "address",
          "name": "_owner",
          "type": "address"
        },
        {
          "internalType": "bool",
          "name": "_breedable",
          "type": "bool"
        },
        {
          "internalType": "string",
          "name": "_tokenURI",
          "type": "string"
        }
      ],
      "name": "createPromoGizzy",
      "outputs": [],
      "stateMutability": "nonpayable",
      "type": "function"
    },
    {
      "inputs": [
        {
          "internalType": "uint256",
          "name": "_id",
          "type": "uint256"
        }
      ],
      "name": "getGizzy",
      "outputs": [
        {
          "internalType": "bool",
          "name": "isGestating",
          "type": "bool"
        },
        {
          "internalType": "bool",
          "name": "isReady",
          "type": "bool"
        },
        {
          "internalType": "uint256",
          "name": "cooldownIndex",
          "type": "uint256"
        },
        {
          "internalType": "uint256",
          "name": "nextActionAt",
          "type": "uint256"
        },
        {
          "internalType": "uint256",
          "name": "siringWithId",
          "type": "uint256"
        },
        {
          "internalType": "uint256",
          "name": "birthTime",
          "type": "uint256"
        },
        {
          "internalType": "uint256",
          "name": "matronId",
          "type": "uint256"
        },
        {
          "internalType": "uint256",
          "name": "sireId",
          "type": "uint256"
        },
        {
          "internalType": "uint256",
          "name": "generation",
          "type": "uint256"
        },
        {
          "internalType": "string",
          "name": "ipfsHash",
          "type": "string"
        }
      ],
      "stateMutability": "view",
      "type": "function",
      "constant": true
    },
    {
      "inputs": [],
      "name": "buyEgg",
      "outputs": [],
      "stateMutability": "payable",
      "type": "function",
      "payable": true
    }
  ],
  "bytecode": "0x6080604052600060cb60146101000a81548160ff021916908315150217905550604051806101c00160405280603c63ffffffff1663ffffffff168152602001607863ffffffff1663ffffffff16815260200161012c63ffffffff1663ffffffff16815260200161025863ffffffff1663ffffffff16815260200161070863ffffffff1663ffffffff168152602001610e1063ffffffff1663ffffffff168152602001611c2063ffffffff1663ffffffff16815260200161384063ffffffff1663ffffffff16815260200161708063ffffffff1663ffffffff16815260200161e10063ffffffff1663ffffffff1681526020016201518063ffffffff1663ffffffff1681526020016202a30063ffffffff1663ffffffff1681526020016205460063ffffffff1663ffffffff16815260200162093a8063ffffffff1663ffffffff1681525060cc90600e620001559291906200016a565b503480156200016357600080fd5b5062000233565b82600e600701600890048101928215620002015791602002820160005b83821115620001cd57835183826101000a81548163ffffffff021916908363ffffffff160217905550926020019260040160208160030104928301926001030262000187565b8015620001ff5782816101000a81549063ffffffff0219169055600401602081600301049283019260010302620001cd565b505b50905062000210919062000214565b5090565b5b808211156200022f57600081600090555060010162000215565b5090565b6143f480620002436000396000f3fe6080604052600436106101c25760003560e01c80637b80638a116100f7578063ab508da411610095578063db420fe311610064578063db420fe314610619578063e985e9c514610644578063f19a0b5414610681578063fc6f9468146106aa576101c2565b8063ab508da414610544578063b88d4fde1461056d578063c87b56dd14610596578063cd0f611b146105d3576101c2565b80638456cb59116100d15780638456cb591461049c57806395d89b41146104b35780639d6fac6f146104de578063a22cb4651461051b576101c2565b80637b80638a146104375780637d6355021461047b5780638129fc1c14610485576101c2565b806342842e0e116101645780635fd8c7101161013e5780635fd8c7101461037d5780636352211e14610394578063704b6c02146103d157806370a08231146103fa576101c2565b806342842e0e1461030057806348ea7127146103295780635c975abb14610352576101c2565b8063095ea7b3116101a0578063095ea7b31461026c5780631f1dea9e1461029557806323b872dd146102c05780633f4ba83a146102e9576101c2565b806301ffc9a7146101c757806306fdde0314610204578063081812fc1461022f575b600080fd5b3480156101d357600080fd5b506101ee60048036038101906101e991906130b0565b6106d5565b6040516101fb9190613562565b60405180910390f35b34801561021057600080fd5b506102196107b7565b6040516102269190613620565b60405180910390f35b34801561023b57600080fd5b5061025660048036038101906102519190613102565b610849565b60405161026391906134e0565b60405180910390f35b34801561027857600080fd5b50610293600480360381019061028e9190613074565b6108ce565b005b3480156102a157600080fd5b506102aa6109e6565b6040516102b791906134fb565b60405180910390f35b3480156102cc57600080fd5b506102e760048036038101906102e29190612f07565b610a0c565b005b3480156102f557600080fd5b506102fe610a6c565b005b34801561030c57600080fd5b5061032760048036038101906103229190612f07565b610afc565b005b34801561033557600080fd5b50610350600480360381019061034b9190612ea2565b610b1c565b005b34801561035e57600080fd5b50610367610bf4565b6040516103749190613562565b60405180910390f35b34801561038957600080fd5b50610392610c07565b005b3480156103a057600080fd5b506103bb60048036038101906103b69190613102565b610ccc565b6040516103c891906134e0565b60405180910390f35b3480156103dd57600080fd5b506103f860048036038101906103f39190612e79565b610d7e565b005b34801561040657600080fd5b50610421600480360381019061041c9190612e79565b610e56565b60405161042e9190613862565b60405180910390f35b34801561044357600080fd5b5061045e60048036038101906104599190613102565b610f0e565b604051610472989796959493929190613912565b60405180910390f35b610483610fe2565b005b34801561049157600080fd5b5061049a611075565b005b3480156104a857600080fd5b506104b1611173565b005b3480156104bf57600080fd5b506104c8611204565b6040516104d59190613620565b60405180910390f35b3480156104ea57600080fd5b5061050560048036038101906105009190613102565b611296565b60405161051291906138f7565b60405180910390f35b34801561052757600080fd5b50610542600480360381019061053d9190612fd1565b6112c6565b005b34801561055057600080fd5b5061056b6004803603810190610566919061300d565b611447565b005b34801561057957600080fd5b50610594600480360381019061058f9190612f56565b611529565b005b3480156105a257600080fd5b506105bd60048036038101906105b89190613102565b61158b565b6040516105ca9190613620565b60405180910390f35b3480156105df57600080fd5b506105fa60048036038101906105f59190613102565b6116dd565b6040516106109a9998979695949392919061357d565b60405180910390f35b34801561062557600080fd5b5061062e611868565b60405161063b91906134e0565b60405180910390f35b34801561065057600080fd5b5061066b60048036038101906106669190612ecb565b61188e565b6040516106789190613562565b60405180910390f35b34801561068d57600080fd5b506106a860048036038101906106a39190612e79565b611922565b005b3480156106b657600080fd5b506106bf6119fa565b6040516106cc91906134e0565b60405180910390f35b60007f80ac58cd000000000000000000000000000000000000000000000000000000007bffffffffffffffffffffffffffffffffffffffffffffffffffffffff1916827bffffffffffffffffffffffffffffffffffffffffffffffffffffffff191614806107a057507f5b5e139f000000000000000000000000000000000000000000000000000000007bffffffffffffffffffffffffffffffffffffffffffffffffffffffff1916827bffffffffffffffffffffffffffffffffffffffffffffffffffffffff1916145b806107b057506107af82611a20565b5b9050919050565b6060606580546107c690613c1c565b80601f01602080910402602001604051908101604052809291908181526020018280546107f290613c1c565b801561083f5780601f106108145761010080835404028352916020019161083f565b820191906000526020600020905b81548152906001019060200180831161082257829003601f168201915b5050505050905090565b600061085482611a8a565b610893576040517f08c379a000000000000000000000000000000000000000000000000000000000815260040161088a906137c2565b60405180910390fd5b6069600083815260200190815260200160002060009054906101000a900473ffffffffffffffffffffffffffffffffffffffff169050919050565b60006108d982610ccc565b90508073ffffffffffffffffffffffffffffffffffffffff168373ffffffffffffffffffffffffffffffffffffffff16141561094a576040517f08c379a000000000000000000000000000000000000000000000000000000000815260040161094190613822565b60405180910390fd5b8073ffffffffffffffffffffffffffffffffffffffff16610969611af6565b73ffffffffffffffffffffffffffffffffffffffff161480610998575061099781610992611af6565b61188e565b5b6109d7576040517f08c379a00000000000000000000000000000000000000000000000000000000081526004016109ce906136e2565b60405180910390fd5b6109e18383611afe565b505050565b60cb60009054906101000a900473ffffffffffffffffffffffffffffffffffffffff1681565b610a1d610a17611af6565b82611bb7565b610a5c576040517f08c379a0000000000000000000000000000000000000000000000000000000008152600401610a5390613842565b60405180910390fd5b610a67838383611c95565b505050565b60c960009054906101000a900473ffffffffffffffffffffffffffffffffffffffff1673ffffffffffffffffffffffffffffffffffffffff163373ffffffffffffffffffffffffffffffffffffffff1614610ac657600080fd5b60cb60149054906101000a900460ff16610adf57600080fd5b600060cb60146101000a81548160ff021916908315150217905550565b610b1783838360405180602001604052806000815250611529565b505050565b60c960009054906101000a900473ffffffffffffffffffffffffffffffffffffffff1673ffffffffffffffffffffffffffffffffffffffff163373ffffffffffffffffffffffffffffffffffffffff1614610b7657600080fd5b600073ffffffffffffffffffffffffffffffffffffffff168173ffffffffffffffffffffffffffffffffffffffff161415610bb057600080fd5b8060ca60006101000a81548173ffffffffffffffffffffffffffffffffffffffff021916908373ffffffffffffffffffffffffffffffffffffffff16021790555050565b60cb60149054906101000a900460ff1681565b60cb60009054906101000a900473ffffffffffffffffffffffffffffffffffffffff1673ffffffffffffffffffffffffffffffffffffffff163373ffffffffffffffffffffffffffffffffffffffff1614610c6157600080fd5b60cb60009054906101000a900473ffffffffffffffffffffffffffffffffffffffff1673ffffffffffffffffffffffffffffffffffffffff166108fc479081150290604051600060405180830381858888f19350505050158015610cc9573d6000803e3d6000fd5b50565b6000806067600084815260200190815260200160002060009054906101000a900473ffffffffffffffffffffffffffffffffffffffff169050600073ffffffffffffffffffffffffffffffffffffffff168173ffffffffffffffffffffffffffffffffffffffff161415610d75576040517f08c379a0000000000000000000000000000000000000000000000000000000008152600401610d6c90613722565b60405180910390fd5b80915050919050565b60c960009054906101000a900473ffffffffffffffffffffffffffffffffffffffff1673ffffffffffffffffffffffffffffffffffffffff163373ffffffffffffffffffffffffffffffffffffffff1614610dd857600080fd5b600073ffffffffffffffffffffffffffffffffffffffff168173ffffffffffffffffffffffffffffffffffffffff161415610e1257600080fd5b8060c960006101000a81548173ffffffffffffffffffffffffffffffffffffffff021916908373ffffffffffffffffffffffffffffffffffffffff16021790555050565b60008073ffffffffffffffffffffffffffffffffffffffff168273ffffffffffffffffffffffffffffffffffffffff161415610ec7576040517f08c379a0000000000000000000000000000000000000000000000000000000008152600401610ebe90613702565b60405180910390fd5b606860008373ffffffffffffffffffffffffffffffffffffffff1673ffffffffffffffffffffffffffffffffffffffff168152602001908152602001600020549050919050565b60ce8181548110610f1e57600080fd5b906000526020600020016000915090508060000160009054906101000a900467ffffffffffffffff16908060000160089054906101000a900467ffffffffffffffff16908060000160109054906101000a900463ffffffff16908060000160149054906101000a900463ffffffff16908060000160189054906101000a900463ffffffff169080600001601c9054906101000a900461ffff169080600001601e9054906101000a900460ff169080600001601f9054906101000a900460ff16905088565b670429d069189e0000341015610ff757600080fd5b6000611022600080600033600060405180608001604052806043815260200161437c60439139611ef1565b90503373ffffffffffffffffffffffffffffffffffffffff167f508fc1f21005a46b5873e1ef3ea013ceae818f7a10ebd8022293c76bf9ab8ae58260405161106a919061387d565b60405180910390a250565b6110e96040518060400160405280600581526020017f47697a7a790000000000000000000000000000000000000000000000000000008152506040518060400160405280600381526020017f475a5900000000000000000000000000000000000000000000000000000000008152506121a7565b3360c960006101000a81548173ffffffffffffffffffffffffffffffffffffffff021916908373ffffffffffffffffffffffffffffffffffffffff16021790555061117060008060003360006040518060400160405280600481526020017f6e756c6c00000000000000000000000000000000000000000000000000000000815250611ef1565b50565b60c960009054906101000a900473ffffffffffffffffffffffffffffffffffffffff1673ffffffffffffffffffffffffffffffffffffffff163373ffffffffffffffffffffffffffffffffffffffff16146111cd57600080fd5b60cb60149054906101000a900460ff16156111e757600080fd5b600160cb60146101000a81548160ff021916908315150217905550565b60606066805461121390613c1c565b80601f016020809104026020016040519081016040528092919081815260200182805461123f90613c1c565b801561128c5780601f106112615761010080835404028352916020019161128c565b820191906000526020600020905b81548152906001019060200180831161126f57829003601f168201915b5050505050905090565b60cc81600e81106112a657600080fd5b60089182820401919006600402915054906101000a900463ffffffff1681565b6112ce611af6565b73ffffffffffffffffffffffffffffffffffffffff168273ffffffffffffffffffffffffffffffffffffffff16141561133c576040517f08c379a0000000000000000000000000000000000000000000000000000000008152600401611333906136a2565b60405180910390fd5b80606a6000611349611af6565b73ffffffffffffffffffffffffffffffffffffffff1673ffffffffffffffffffffffffffffffffffffffff16815260200190815260200160002060008473ffffffffffffffffffffffffffffffffffffffff1673ffffffffffffffffffffffffffffffffffffffff16815260200190815260200160002060006101000a81548160ff0219169083151502179055508173ffffffffffffffffffffffffffffffffffffffff166113f6611af6565b73ffffffffffffffffffffffffffffffffffffffff167f17307eab39ab6107e8899845ad3d59bd9653f200f220920489ca2b5937696c318360405161143b9190613562565b60405180910390a35050565b60c960009054906101000a900473ffffffffffffffffffffffffffffffffffffffff1673ffffffffffffffffffffffffffffffffffffffff163373ffffffffffffffffffffffffffffffffffffffff1614806114f0575060ca60009054906101000a900473ffffffffffffffffffffffffffffffffffffffff1673ffffffffffffffffffffffffffffffffffffffff163373ffffffffffffffffffffffffffffffffffffffff16145b6114f957600080fd5b60cb60149054906101000a900460ff161561151357600080fd5b6115236000806000868686611ef1565b50505050565b61153a611534611af6565b83611bb7565b611579576040517f08c379a000000000000000000000000000000000000000000000000000000000815260040161157090613842565b60405180910390fd5b6115858484848461229c565b50505050565b606061159682611a8a565b6115d5576040517f08c379a00000000000000000000000000000000000000000000000000000000081526004016115cc906137a2565b60405180910390fd5b60006097600084815260200190815260200160002080546115f590613c1c565b80601f016020809104026020016040519081016040528092919081815260200182805461162190613c1c565b801561166e5780601f106116435761010080835404028352916020019161166e565b820191906000526020600020905b81548152906001019060200180831161165157829003601f168201915b50505050509050600061167f6122f8565b90506000815114156116955781925050506116d8565b6000825111156116ca5780826040516020016116b29291906134bc565b604051602081830303815290604052925050506116d8565b6116d38461230f565b925050505b919050565b60008060008060008060008060006060600060ce8c81548110611729577f4e487b7100000000000000000000000000000000000000000000000000000000600052603260045260246000fd5b90600052602060002001905060008160000160189054906101000a900463ffffffff1663ffffffff1614159a50428160000160089054906101000a900467ffffffffffffffff1667ffffffffffffffff161115995080600001601e9054906101000a900460ff1660ff1698508060000160089054906101000a900467ffffffffffffffff1667ffffffffffffffff1697508060000160189054906101000a900463ffffffff1663ffffffff1696508060000160009054906101000a900467ffffffffffffffff1667ffffffffffffffff1695508060000160109054906101000a900463ffffffff1663ffffffff1694508060000160149054906101000a900463ffffffff1663ffffffff16935080600001601c9054906101000a900461ffff1661ffff1692506118588c61158b565b9150509193959799509193959799565b60ca60009054906101000a900473ffffffffffffffffffffffffffffffffffffffff1681565b6000606a60008473ffffffffffffffffffffffffffffffffffffffff1673ffffffffffffffffffffffffffffffffffffffff16815260200190815260200160002060008373ffffffffffffffffffffffffffffffffffffffff1673ffffffffffffffffffffffffffffffffffffffff16815260200190815260200160002060009054906101000a900460ff16905092915050565b60c960009054906101000a900473ffffffffffffffffffffffffffffffffffffffff1673ffffffffffffffffffffffffffffffffffffffff163373ffffffffffffffffffffffffffffffffffffffff161461197c57600080fd5b600073ffffffffffffffffffffffffffffffffffffffff168173ffffffffffffffffffffffffffffffffffffffff1614156119b657600080fd5b8060ca60006101000a81548173ffffffffffffffffffffffffffffffffffffffff021916908373ffffffffffffffffffffffffffffffffffffffff16021790555050565b60c960009054906101000a900473ffffffffffffffffffffffffffffffffffffffff1681565b60007f01ffc9a7000000000000000000000000000000000000000000000000000000007bffffffffffffffffffffffffffffffffffffffffffffffffffffffff1916827bffffffffffffffffffffffffffffffffffffffffffffffffffffffff1916149050919050565b60008073ffffffffffffffffffffffffffffffffffffffff166067600084815260200190815260200160002060009054906101000a900473ffffffffffffffffffffffffffffffffffffffff1673ffffffffffffffffffffffffffffffffffffffff1614159050919050565b600033905090565b816069600083815260200190815260200160002060006101000a81548173ffffffffffffffffffffffffffffffffffffffff021916908373ffffffffffffffffffffffffffffffffffffffff160217905550808273ffffffffffffffffffffffffffffffffffffffff16611b7183610ccc565b73ffffffffffffffffffffffffffffffffffffffff167f8c5be1e5ebec7d5bd14f71427d1e84f3dd0314c0f7b2291e5b200ac8c7c3b92560405160405180910390a45050565b6000611bc282611a8a565b611c01576040517f08c379a0000000000000000000000000000000000000000000000000000000008152600401611bf8906136c2565b60405180910390fd5b6000611c0c83610ccc565b90508073ffffffffffffffffffffffffffffffffffffffff168473ffffffffffffffffffffffffffffffffffffffff161480611c7b57508373ffffffffffffffffffffffffffffffffffffffff16611c6384610849565b73ffffffffffffffffffffffffffffffffffffffff16145b80611c8c5750611c8b818561188e565b5b91505092915050565b8273ffffffffffffffffffffffffffffffffffffffff16611cb582610ccc565b73ffffffffffffffffffffffffffffffffffffffff1614611d0b576040517f08c379a0000000000000000000000000000000000000000000000000000000008152600401611d02906137e2565b60405180910390fd5b600073ffffffffffffffffffffffffffffffffffffffff168273ffffffffffffffffffffffffffffffffffffffff161415611d7b576040517f08c379a0000000000000000000000000000000000000000000000000000000008152600401611d7290613682565b60405180910390fd5b611d868383836123b6565b611d91600082611afe565b6001606860008573ffffffffffffffffffffffffffffffffffffffff1673ffffffffffffffffffffffffffffffffffffffff1681526020019081526020016000206000828254611de19190613ae1565b925050819055506001606860008473ffffffffffffffffffffffffffffffffffffffff1673ffffffffffffffffffffffffffffffffffffffff1681526020019081526020016000206000828254611e389190613a5a565b92505081905550816067600083815260200190815260200160002060006101000a81548173ffffffffffffffffffffffffffffffffffffffff021916908373ffffffffffffffffffffffffffffffffffffffff160217905550808273ffffffffffffffffffffffffffffffffffffffff168473ffffffffffffffffffffffffffffffffffffffff167fddf252ad1be2c89b69c2b068fc378daa952ba7f163c4a11628f55a4df523b3ef60405160405180910390a4505050565b600063ffffffff871115611f0457600080fd5b63ffffffff861115611f1557600080fd5b61ffff851115611f2457600080fd5b60006040518061010001604052804267ffffffffffffffff168152602001600067ffffffffffffffff1681526020018963ffffffff1681526020018863ffffffff168152602001600063ffffffff1681526020018761ffff168152602001600060ff168152602001851515815250905060ce819080600181540180825580915050600190039060005260206000200160009091909190915060008201518160000160006101000a81548167ffffffffffffffff021916908367ffffffffffffffff16021790555060208201518160000160086101000a81548167ffffffffffffffff021916908367ffffffffffffffff16021790555060408201518160000160106101000a81548163ffffffff021916908363ffffffff16021790555060608201518160000160146101000a81548163ffffffff021916908363ffffffff16021790555060808201518160000160186101000a81548163ffffffff021916908363ffffffff16021790555060a082015181600001601c6101000a81548161ffff021916908361ffff16021790555060c082015181600001601e6101000a81548160ff021916908360ff16021790555060e082015181600001601f6101000a81548160ff02191690831515021790555050506000600160ce805490506121099190613ae1565b905063ffffffff81111561211c57600080fd5b8573ffffffffffffffffffffffffffffffffffffffff167f9402a6ae3ac82210044ca95af4f5a153cd33bf2073e1d5244b2579437529a6d982846040015163ffffffff16856060015163ffffffff168860405161217c94939291906138ab565b60405180910390a261218e86826123bb565b61219881856123d9565b80925050509695505050505050565b600060019054906101000a900460ff16806121cd575060008054906101000a900460ff16155b61220c576040517f08c379a000000000000000000000000000000000000000000000000000000000815260040161220390613762565b60405180910390fd5b60008060019054906101000a900460ff16159050801561225c576001600060016101000a81548160ff02191690831515021790555060016000806101000a81548160ff0219169083151502179055505b61226461244d565b61226c612526565b61227683836125ff565b80156122975760008060016101000a81548160ff0219169083151502179055505b505050565b6122a7848484611c95565b6122b384848484612708565b6122f2576040517f08c379a00000000000000000000000000000000000000000000000000000000081526004016122e990613642565b60405180910390fd5b50505050565b606060405180602001604052806000815250905090565b606061231a82611a8a565b612359576040517f08c379a000000000000000000000000000000000000000000000000000000000815260040161235090613802565b60405180910390fd5b60006123636122f8565b9050600081511161238357604051806020016040528060008152506123ae565b8061238d8461289f565b60405160200161239e9291906134bc565b6040516020818303038152906040525b915050919050565b505050565b6123d5828260405180602001604052806000815250612a4c565b5050565b6123e282611a8a565b612421576040517f08c379a000000000000000000000000000000000000000000000000000000000815260040161241890613742565b60405180910390fd5b80609760008481526020019081526020016000209080519060200190612448929190612c88565b505050565b600060019054906101000a900460ff1680612473575060008054906101000a900460ff16155b6124b2576040517f08c379a00000000000000000000000000000000000000000000000000000000081526004016124a990613762565b60405180910390fd5b60008060019054906101000a900460ff161590508015612502576001600060016101000a81548160ff02191690831515021790555060016000806101000a81548160ff0219169083151502179055505b80156125235760008060016101000a81548160ff0219169083151502179055505b50565b600060019054906101000a900460ff168061254c575060008054906101000a900460ff16155b61258b576040517f08c379a000000000000000000000000000000000000000000000000000000000815260040161258290613762565b60405180910390fd5b60008060019054906101000a900460ff1615905080156125db576001600060016101000a81548160ff02191690831515021790555060016000806101000a81548160ff0219169083151502179055505b80156125fc5760008060016101000a81548160ff0219169083151502179055505b50565b600060019054906101000a900460ff1680612625575060008054906101000a900460ff16155b612664576040517f08c379a000000000000000000000000000000000000000000000000000000000815260040161265b90613762565b60405180910390fd5b60008060019054906101000a900460ff1615905080156126b4576001600060016101000a81548160ff02191690831515021790555060016000806101000a81548160ff0219169083151502179055505b82606590805190602001906126ca929190612c88565b5081606690805190602001906126e1929190612c88565b5080156127035760008060016101000a81548160ff0219169083151502179055505b505050565b60006127298473ffffffffffffffffffffffffffffffffffffffff16612aa7565b15612892578373ffffffffffffffffffffffffffffffffffffffff1663150b7a02612752611af6565b8786866040518563ffffffff1660e01b81526004016127749493929190613516565b602060405180830381600087803b15801561278e57600080fd5b505af19250505080156127bf57506040513d601f19601f820116820180604052508101906127bc91906130d9565b60015b612842573d80600081146127ef576040519150601f19603f3d011682016040523d82523d6000602084013e6127f4565b606091505b5060008151141561283a576040517f08c379a000000000000000000000000000000000000000000000000000000000815260040161283190613642565b60405180910390fd5b805181602001fd5b63150b7a0260e01b7bffffffffffffffffffffffffffffffffffffffffffffffffffffffff1916817bffffffffffffffffffffffffffffffffffffffffffffffffffffffff191614915050612897565b600190505b949350505050565b606060008214156128e7576040518060400160405280600181526020017f30000000000000000000000000000000000000000000000000000000000000008152509050612a47565b600082905060005b6000821461291957808061290290613c7f565b915050600a826129129190613ab0565b91506128ef565b60008167ffffffffffffffff81111561295b577f4e487b7100000000000000000000000000000000000000000000000000000000600052604160045260246000fd5b6040519080825280601f01601f19166020018201604052801561298d5781602001600182028036833780820191505090505b5090505b60008514612a40576001826129a69190613ae1565b9150600a856129b59190613cc8565b60306129c19190613a5a565b60f81b8183815181106129fd577f4e487b7100000000000000000000000000000000000000000000000000000000600052603260045260246000fd5b60200101907effffffffffffffffffffffffffffffffffffffffffffffffffffffffffffff1916908160001a905350600a85612a399190613ab0565b9450612991565b8093505050505b919050565b612a568383612aba565b612a636000848484612708565b612aa2576040517f08c379a0000000000000000000000000000000000000000000000000000000008152600401612a9990613642565b60405180910390fd5b505050565b600080823b905060008111915050919050565b600073ffffffffffffffffffffffffffffffffffffffff168273ffffffffffffffffffffffffffffffffffffffff161415612b2a576040517f08c379a0000000000000000000000000000000000000000000000000000000008152600401612b2190613782565b60405180910390fd5b612b3381611a8a565b15612b73576040517f08c379a0000000000000000000000000000000000000000000000000000000008152600401612b6a90613662565b60405180910390fd5b612b7f600083836123b6565b6001606860008473ffffffffffffffffffffffffffffffffffffffff1673ffffffffffffffffffffffffffffffffffffffff1681526020019081526020016000206000828254612bcf9190613a5a565b92505081905550816067600083815260200190815260200160002060006101000a81548173ffffffffffffffffffffffffffffffffffffffff021916908373ffffffffffffffffffffffffffffffffffffffff160217905550808273ffffffffffffffffffffffffffffffffffffffff16600073ffffffffffffffffffffffffffffffffffffffff167fddf252ad1be2c89b69c2b068fc378daa952ba7f163c4a11628f55a4df523b3ef60405160405180910390a45050565b828054612c9490613c1c565b90600052602060002090601f016020900481019282612cb65760008555612cfd565b82601f10612ccf57805160ff1916838001178555612cfd565b82800160010185558215612cfd579182015b82811115612cfc578251825591602001919060010190612ce1565b5b509050612d0a9190612d0e565b5090565b5b80821115612d27576000816000905550600101612d0f565b5090565b6000612d3e612d39846139b5565b613990565b905082815260208101848484011115612d5657600080fd5b612d61848285613bda565b509392505050565b6000612d7c612d77846139e6565b613990565b905082815260208101848484011115612d9457600080fd5b612d9f848285613bda565b509392505050565b600081359050612db681614308565b92915050565b600081359050612dcb8161431f565b92915050565b600081359050612de081614336565b92915050565b600081359050612df58161434d565b92915050565b600081519050612e0a8161434d565b92915050565b600082601f830112612e2157600080fd5b8135612e31848260208601612d2b565b91505092915050565b600082601f830112612e4b57600080fd5b8135612e5b848260208601612d69565b91505092915050565b600081359050612e7381614364565b92915050565b600060208284031215612e8b57600080fd5b6000612e9984828501612da7565b91505092915050565b600060208284031215612eb457600080fd5b6000612ec284828501612dbc565b91505092915050565b60008060408385031215612ede57600080fd5b6000612eec85828601612da7565b9250506020612efd85828601612da7565b9150509250929050565b600080600060608486031215612f1c57600080fd5b6000612f2a86828701612da7565b9350506020612f3b86828701612da7565b9250506040612f4c86828701612e64565b9150509250925092565b60008060008060808587031215612f6c57600080fd5b6000612f7a87828801612da7565b9450506020612f8b87828801612da7565b9350506040612f9c87828801612e64565b925050606085013567ffffffffffffffff811115612fb957600080fd5b612fc587828801612e10565b91505092959194509250565b60008060408385031215612fe457600080fd5b6000612ff285828601612da7565b925050602061300385828601612dd1565b9150509250929050565b60008060006060848603121561302257600080fd5b600061303086828701612da7565b935050602061304186828701612dd1565b925050604084013567ffffffffffffffff81111561305e57600080fd5b61306a86828701612e3a565b9150509250925092565b6000806040838503121561308757600080fd5b600061309585828601612da7565b92505060206130a685828601612e64565b9150509250929050565b6000602082840312156130c257600080fd5b60006130d084828501612de6565b91505092915050565b6000602082840312156130eb57600080fd5b60006130f984828501612dfb565b91505092915050565b60006020828403121561311457600080fd5b600061312284828501612e64565b91505092915050565b61313481613b27565b82525050565b61314381613b15565b82525050565b61315281613b39565b82525050565b600061316382613a17565b61316d8185613a2d565b935061317d818560208601613be9565b61318681613db5565b840191505092915050565b600061319c82613a22565b6131a68185613a3e565b93506131b6818560208601613be9565b6131bf81613db5565b840191505092915050565b60006131d582613a22565b6131df8185613a4f565b93506131ef818560208601613be9565b80840191505092915050565b6000613208604383613a3e565b915061321382613dc6565b606082019050919050565b600061322b603283613a3e565b915061323682613e3b565b604082019050919050565b600061324e601c83613a3e565b915061325982613e8a565b602082019050919050565b6000613271602483613a3e565b915061327c82613eb3565b604082019050919050565b6000613294601983613a3e565b915061329f82613f02565b602082019050919050565b60006132b7602c83613a3e565b91506132c282613f2b565b604082019050919050565b60006132da603883613a3e565b91506132e582613f7a565b604082019050919050565b60006132fd602a83613a3e565b915061330882613fc9565b604082019050919050565b6000613320602983613a3e565b915061332b82614018565b604082019050919050565b6000613343602e83613a3e565b915061334e82614067565b604082019050919050565b6000613366602e83613a3e565b9150613371826140b6565b604082019050919050565b6000613389602083613a3e565b915061339482614105565b602082019050919050565b60006133ac603183613a3e565b91506133b78261412e565b604082019050919050565b60006133cf602c83613a3e565b91506133da8261417d565b604082019050919050565b60006133f2602983613a3e565b91506133fd826141cc565b604082019050919050565b6000613415602f83613a3e565b91506134208261421b565b604082019050919050565b6000613438602183613a3e565b91506134438261426a565b604082019050919050565b600061345b603183613a3e565b9150613466826142b9565b604082019050919050565b61347a81613b71565b82525050565b61348981613b9f565b82525050565b61349881613ba9565b82525050565b6134a781613bb9565b82525050565b6134b681613bcd565b82525050565b60006134c882856131ca565b91506134d482846131ca565b91508190509392505050565b60006020820190506134f5600083018461313a565b92915050565b6000602082019050613510600083018461312b565b92915050565b600060808201905061352b600083018761313a565b613538602083018661313a565b6135456040830185613480565b81810360608301526135578184613158565b905095945050505050565b60006020820190506135776000830184613149565b92915050565b600061014082019050613593600083018d613149565b6135a0602083018c613149565b6135ad604083018b613480565b6135ba606083018a613480565b6135c76080830189613480565b6135d460a0830188613480565b6135e160c0830187613480565b6135ee60e0830186613480565b6135fc610100830185613480565b81810361012083015261360f8184613191565b90509b9a5050505050505050505050565b6000602082019050818103600083015261363a8184613191565b905092915050565b6000602082019050818103600083015261365b8161321e565b9050919050565b6000602082019050818103600083015261367b81613241565b9050919050565b6000602082019050818103600083015261369b81613264565b9050919050565b600060208201905081810360008301526136bb81613287565b9050919050565b600060208201905081810360008301526136db816132aa565b9050919050565b600060208201905081810360008301526136fb816132cd565b9050919050565b6000602082019050818103600083015261371b816132f0565b9050919050565b6000602082019050818103600083015261373b81613313565b9050919050565b6000602082019050818103600083015261375b81613336565b9050919050565b6000602082019050818103600083015261377b81613359565b9050919050565b6000602082019050818103600083015261379b8161337c565b9050919050565b600060208201905081810360008301526137bb8161339f565b9050919050565b600060208201905081810360008301526137db816133c2565b9050919050565b600060208201905081810360008301526137fb816133e5565b9050919050565b6000602082019050818103600083015261381b81613408565b9050919050565b6000602082019050818103600083015261383b8161342b565b9050919050565b6000602082019050818103600083015261385b8161344e565b9050919050565b60006020820190506138776000830184613480565b92915050565b60006040820190506138926000830184613480565b81810360208301526138a3816131fb565b905092915050565b60006080820190506138c06000830187613480565b6138cd6020830186613480565b6138da6040830185613480565b81810360608301526138ec8184613191565b905095945050505050565b600060208201905061390c600083018461348f565b92915050565b600061010082019050613928600083018b61349e565b613935602083018a61349e565b613942604083018961348f565b61394f606083018861348f565b61395c608083018761348f565b61396960a0830186613471565b61397660c08301856134ad565b61398360e0830184613149565b9998505050505050505050565b600061399a6139ab565b90506139a68282613c4e565b919050565b6000604051905090565b600067ffffffffffffffff8211156139d0576139cf613d86565b5b6139d982613db5565b9050602081019050919050565b600067ffffffffffffffff821115613a0157613a00613d86565b5b613a0a82613db5565b9050602081019050919050565b600081519050919050565b600081519050919050565b600082825260208201905092915050565b600082825260208201905092915050565b600081905092915050565b6000613a6582613b9f565b9150613a7083613b9f565b9250827fffffffffffffffffffffffffffffffffffffffffffffffffffffffffffffffff03821115613aa557613aa4613cf9565b5b828201905092915050565b6000613abb82613b9f565b9150613ac683613b9f565b925082613ad657613ad5613d28565b5b828204905092915050565b6000613aec82613b9f565b9150613af783613b9f565b925082821015613b0a57613b09613cf9565b5b828203905092915050565b6000613b2082613b7f565b9050919050565b6000613b3282613b7f565b9050919050565b60008115159050919050565b60007fffffffff0000000000000000000000000000000000000000000000000000000082169050919050565b600061ffff82169050919050565b600073ffffffffffffffffffffffffffffffffffffffff82169050919050565b6000819050919050565b600063ffffffff82169050919050565b600067ffffffffffffffff82169050919050565b600060ff82169050919050565b82818337600083830152505050565b60005b83811015613c07578082015181840152602081019050613bec565b83811115613c16576000848401525b50505050565b60006002820490506001821680613c3457607f821691505b60208210811415613c4857613c47613d57565b5b50919050565b613c5782613db5565b810181811067ffffffffffffffff82111715613c7657613c75613d86565b5b80604052505050565b6000613c8a82613b9f565b91507fffffffffffffffffffffffffffffffffffffffffffffffffffffffffffffffff821415613cbd57613cbc613cf9565b5b600182019050919050565b6000613cd382613b9f565b9150613cde83613b9f565b925082613cee57613ced613d28565b5b828206905092915050565b7f4e487b7100000000000000000000000000000000000000000000000000000000600052601160045260246000fd5b7f4e487b7100000000000000000000000000000000000000000000000000000000600052601260045260246000fd5b7f4e487b7100000000000000000000000000000000000000000000000000000000600052602260045260246000fd5b7f4e487b7100000000000000000000000000000000000000000000000000000000600052604160045260246000fd5b6000601f19601f8301169050919050565b7f68747470733a2f2f697066732e696f2f697066732f516d52586f7a446e65766e60008201527f325672444d50477a73704266444e4d36456e37624a676b71786934516455454c60208201527f4d646a0000000000000000000000000000000000000000000000000000000000604082015250565b7f4552433732313a207472616e7366657220746f206e6f6e20455243373231526560008201527f63656976657220696d706c656d656e7465720000000000000000000000000000602082015250565b7f4552433732313a20746f6b656e20616c7265616479206d696e74656400000000600082015250565b7f4552433732313a207472616e7366657220746f20746865207a65726f2061646460008201527f7265737300000000000000000000000000000000000000000000000000000000602082015250565b7f4552433732313a20617070726f766520746f2063616c6c657200000000000000600082015250565b7f4552433732313a206f70657261746f7220717565727920666f72206e6f6e657860008201527f697374656e7420746f6b656e0000000000000000000000000000000000000000602082015250565b7f4552433732313a20617070726f76652063616c6c6572206973206e6f74206f7760008201527f6e6572206e6f7220617070726f76656420666f7220616c6c0000000000000000602082015250565b7f4552433732313a2062616c616e636520717565727920666f7220746865207a6560008201527f726f206164647265737300000000000000000000000000000000000000000000602082015250565b7f4552433732313a206f776e657220717565727920666f72206e6f6e657869737460008201527f656e7420746f6b656e0000000000000000000000000000000000000000000000602082015250565b7f45524337323155524953746f726167653a2055524920736574206f66206e6f6e60008201527f6578697374656e7420746f6b656e000000000000000000000000000000000000602082015250565b7f496e697469616c697a61626c653a20636f6e747261637420697320616c72656160008201527f647920696e697469616c697a6564000000000000000000000000000000000000602082015250565b7f4552433732313a206d696e7420746f20746865207a65726f2061646472657373600082015250565b7f45524337323155524953746f726167653a2055524920717565727920666f722060008201527f6e6f6e6578697374656e7420746f6b656e000000000000000000000000000000602082015250565b7f4552433732313a20617070726f76656420717565727920666f72206e6f6e657860008201527f697374656e7420746f6b656e0000000000000000000000000000000000000000602082015250565b7f4552433732313a207472616e73666572206f6620746f6b656e2074686174206960008201527f73206e6f74206f776e0000000000000000000000000000000000000000000000602082015250565b7f4552433732314d657461646174613a2055524920717565727920666f72206e6f60008201527f6e6578697374656e7420746f6b656e0000000000000000000000000000000000602082015250565b7f4552433732313a20617070726f76616c20746f2063757272656e74206f776e6560008201527f7200000000000000000000000000000000000000000000000000000000000000602082015250565b7f4552433732313a207472616e736665722063616c6c6572206973206e6f74206f60008201527f776e6572206e6f7220617070726f766564000000000000000000000000000000602082015250565b61431181613b15565b811461431c57600080fd5b50565b61432881613b27565b811461433357600080fd5b50565b61433f81613b39565b811461434a57600080fd5b50565b61435681613b45565b811461436157600080fd5b50565b61436d81613b9f565b811461437857600080fd5b5056fe68747470733a2f2f697066732e696f2f697066732f516d52586f7a446e65766e325672444d50477a73704266444e4d36456e37624a676b71786934516455454c4d646aa2646970667358221220aa2762bdd00744af5a453716b5c57271e4b566e2c8f99d1ad062e827d36fa53164736f6c63430008030033",
  "immutableReferences": {},
  "source": "// SPDX-License-Identifier: MIT\npragma solidity >=0.4.22 <0.9.0;\n \nimport \"@openzeppelin/contracts-upgradeable/token/ERC721/extensions/ERC721URIStorageUpgradeable.sol\";\n \ncontract GizzyBase is ERC721URIStorageUpgradeable{\n \n    function initialize() public {\n        __ERC721_init(\"Gizzy\", \"GZY\");\n        adminAddress = msg.sender;\n        _createGizzy(0,0,0,msg.sender,false,\"null\");\n    }\n \n    address public adminAddress;\n    address public serverAddress;\n    address payable public accountantAddress;\n \n    bool public paused = false;\n \n    modifier onlyAdmin() {\n        require(msg.sender == adminAddress);\n        _;\n    }\n \n    modifier onlyAccountant() {\n        require(msg.sender == accountantAddress);\n        _;\n    }\n\n    modifier onlyServer() {\n        require(msg.sender == serverAddress);\n        _;\n    }\n\n    modifier onlyAuthority() {\n        require(\n            msg.sender == adminAddress ||\n            msg.sender == serverAddress\n        );\n        _;\n    }\n\n    function setAdmin(address _newAdmin) public onlyAdmin {\n        require(_newAdmin != address(0));\n \n        adminAddress = _newAdmin;\n    }\n \n \n    function setServer(address _newServer) public onlyAdmin {\n        require(_newServer != address(0));\n \n        serverAddress = _newServer;\n    }\n \n    function setAccountant(address payable _newAccountant) public onlyAdmin {\n        require(_newAccountant != address(0));\n \n        serverAddress = _newAccountant;\n    }\n\n    function withdrawBalance() external onlyAccountant {\n        // keep track of actual balance and send that balance\n        accountantAddress.transfer(address(this).balance);\n    }\n \n    modifier whenNotPaused() {\n        require(!paused);\n        _;\n    }\n \n    modifier whenPaused {\n        require(paused);\n        _;\n    }\n \n    function pause() public onlyAdmin whenNotPaused {\n        paused = true;\n    }\n \n    function unpause() public onlyAdmin whenPaused {\n        // can't unpause if contract was upgraded\n        paused = false;\n    }\n \n    event Birth(uint256 gizzyId, uint256 matronId, uint256 sireId, address indexed owner, string tokenURI);\n \n    struct Gizzy {\n        uint64 birthTime;\n        uint64 cooldownEndTime;\n        uint32 matronId;\n        uint32 sireId;\n        uint32 siringWithId;\n        uint16 generation;\n        uint8 cooldownIndex;\n        bool breedable;\n    }\n \n    uint32[14] public cooldowns = [\n        uint32(1 minutes),\n        uint32(2 minutes),\n        uint32(5 minutes),\n        uint32(10 minutes),\n        uint32(30 minutes),\n        uint32(1 hours),\n        uint32(2 hours),\n        uint32(4 hours),\n        uint32(8 hours),\n        uint32(16 hours),\n        uint32(1 days),\n        uint32(2 days),\n        uint32(4 days),\n        uint32(7 days)\n    ];\n \n    // an array to keep track of all the gizzy structs\n    Gizzy[] public gizzies;\n \n    function _createGizzy(\n        uint256 _matronId,\n        uint256 _sireId,\n        uint256 _generation,\n        address _owner,\n        bool _breedable,\n        string memory _tokenURI\n    )\n        internal\n        returns (uint)\n \n    {\n        require(_matronId <= 4294967295);\n        require(_sireId <= 4294967295);\n        require(_generation <= 65535);\n    \n        Gizzy memory _gizzy = Gizzy({\n            birthTime: uint64(block.timestamp),\n            cooldownEndTime: 0,\n            matronId: uint32(_matronId),\n            sireId: uint32(_sireId),\n            siringWithId: 0,\n            cooldownIndex: 0,\n            generation: uint16(_generation),\n            breedable: bool (_breedable)\n        });\n \n        gizzies.push(_gizzy);\n        uint256 newGizzyId = gizzies.length - 1;\n \n        require(newGizzyId <= 4294967295);\n \n        emit Birth(\n        newGizzyId,\n        uint256(_gizzy.matronId),\n        uint256(_gizzy.sireId),\n        _owner,\n        string(_tokenURI)\n        );\n \n        _safeMint(_owner, newGizzyId);\n        _setTokenURI(newGizzyId, _tokenURI);\n        \n        return newGizzyId;\n \n    }\n \n    // called by admin\n    function createPromoGizzy(address _owner, bool _breedable, string memory _tokenURI) public onlyAuthority whenNotPaused {\n \n        // set owner to whoever gizzy is being gifted\n        // when promo gizzy is auctioned, gift to their own account and then start auction\n\n        _createGizzy(0, 0, 0, _owner, _breedable, _tokenURI);\n    }\n \n    //\n    // Core Contract that is deployed\n    //\n    function getGizzy(uint256 _id)\n    public\n    view\n    returns (\n      bool isGestating,\n      bool isReady,\n      uint256 cooldownIndex,\n      uint256 nextActionAt,\n      uint256 siringWithId,\n      uint256 birthTime,\n      uint256 matronId,\n      uint256 sireId,\n      uint256 generation,\n      string memory ipfsHash\n    ) {\n      Gizzy storage giz = gizzies[_id];\n \n      isGestating = (giz.siringWithId != 0);\n      isReady = (giz.cooldownEndTime <= block.timestamp);\n      cooldownIndex = uint256(giz.cooldownIndex);\n      nextActionAt = uint256(giz.cooldownEndTime);\n      siringWithId = uint256(giz.siringWithId);\n      birthTime = uint256(giz.birthTime);\n      matronId = uint256(giz.matronId);\n      sireId = uint256(giz.sireId);\n      generation = uint256(giz.generation);\n      ipfsHash = tokenURI(_id);\n    }\n    \n    event BoughtEgg(uint256 gizzyId, address indexed owner, string tokenURI);\n\n    function buyEgg() public payable\n    {\n        require(msg.value >= 0.3 ether);\n        uint256 gizzyId = _createGizzy(0, 0, 0, msg.sender, false, \"https://ipfs.io/ipfs/QmRXozDnevn2VrDMPGzspBfDNM6En7bJgkqxi4QdUELMdj\");\n        emit BoughtEgg(gizzyId, msg.sender, \"https://ipfs.io/ipfs/QmRXozDnevn2VrDMPGzspBfDNM6En7bJgkqxi4QdUELMdj\");\n        \n    }\n \n}\n",
  "sourcePath": "/home/imtiaz/Desktop/baeinnovations/gizzy-smartcontracts/contracts/GizzyBase.sol",
  "compiler": {
    "name": "solc",
    "version": "0.8.3+commit.8d00100c.Emscripten.clang"
  },
  "schemaVersion": "3.4.0",
  "updatedAt": "2021-06-17T18:51:35.956Z",
  "networkType": "ethereum",
  "devdoc": {
    "kind": "dev",
    "methods": {
      "approve(address,uint256)": {
        "details": "See {IERC721-approve}."
      },
      "balanceOf(address)": {
        "details": "See {IERC721-balanceOf}."
      },
      "getApproved(uint256)": {
        "details": "See {IERC721-getApproved}."
      },
      "isApprovedForAll(address,address)": {
        "details": "See {IERC721-isApprovedForAll}."
      },
      "name()": {
        "details": "See {IERC721Metadata-name}."
      },
      "ownerOf(uint256)": {
        "details": "See {IERC721-ownerOf}."
      },
      "safeTransferFrom(address,address,uint256)": {
        "details": "See {IERC721-safeTransferFrom}."
      },
      "safeTransferFrom(address,address,uint256,bytes)": {
        "details": "See {IERC721-safeTransferFrom}."
      },
      "setApprovalForAll(address,bool)": {
        "details": "See {IERC721-setApprovalForAll}."
      },
      "supportsInterface(bytes4)": {
        "details": "See {IERC165-supportsInterface}."
      },
      "symbol()": {
        "details": "See {IERC721Metadata-symbol}."
      },
      "tokenURI(uint256)": {
        "details": "See {IERC721Metadata-tokenURI}."
      },
      "transferFrom(address,address,uint256)": {
        "details": "See {IERC721-transferFrom}."
      }
    },
    "version": 1
  },
  "userdoc": {
    "kind": "user",
    "methods": {},
    "version": 1
  }
}